:020000040001F9
:1040000098370020C1410100D3410100D541010092
:1040100000000000000000000000000000000000A0
:10402000000000000000000000000000D741010077
:104030000000000000000000D9410100DB41010048
:10404000DD410100DD410100DD410100DD410100F4
:10405000DD41010000000000B15C0100DD41010014
:10406000DD410100DD410100DD410100DD410100D4
:10407000DD410100DD410100DD410100DD410100C4
:10408000DD4101004D6A0100DD410100DD4101001B
:104090006F6A0100DD41010025590100DD41010089
:1040A000DD410100DD4101000000000000000000D2
:1040B0000000000000000000000000000000000000
:1040C00000F002F800F040F80CA030C808382418BE
:1040D0002D18A246671EAB4654465D46AC4201D140
:1040E00000F032F87E460F3E0FCCB6460126334232
:1040F00000D0FB1AA246AB46334318478439000070
:10410000A4390000103A02D378C878C1FAD852070F
:1041100001D330C830C101D504680C60704700007D
:104120000023002400250026103A01D378C1FBD8D3
:10413000520700D330C100D50B6070471FB5C04691
:10414000C0461FBD10B510BD03F05FFC1146FFF760
:10415000F5FF00F050FC03F077FC03B4FFF7F2FF2B
:1041600003BC03F07BFC0000401E00BF00BF00BF8B
:1041700000BF00BF00BF00BF00BF00BF00BF00BF47
:1041800000BFF1D17047000070B505460C461646D9
:1041900002E00FCC0FC5103E102EFAD2082E02D32B
:1041A00003CC03C5083E042E07D301CC01C5361F3E
:1041B00003E021782970641C6D1C761EF9D270BD55
:1041C0000A4802680F210A430260094880470948EB
:1041D0000047FEE7FEE7FEE7FEE7FEE7FEE700003A
:1041E00005480649064A074B704700002405004071
:1041F0009F420100C140010098270020983700200D
:10420000982F0020982F00202E482F4908607047D3
:104210002E48008CC0B2012810D12C48808C000799
:10422000000F0BD12948806AF0210840402805D1B1
:104230002648C06A084201D1012070470020FCE7EF
:104240002248008CC0B2012827D12048808C00076A
:10425000000F22D11D48806AF021084205D11B4879
:10426000C06A084201D1012070471848806AF021D5
:104270000840102805D11548C06A084201D1012024
:10428000F2E71248806AF0210840302805D10F4833
:10429000C06A084201D10120E6E70020E4E710B53A
:1042A000FFF7CEFF002805D009480A494860C81327
:1042B00009498861FFF7ACFF002802D001200749B7
:1042C000886010BD0024F40000200020C00F00F022
:1042D000DFFF07C000050040006C00400006004002
:1042E000102001218140FE4AD16000BF00F0E1FCB6
:1042F00004460D462A462146FA48FFF7F1FF03F02F
:104300004DFA044600BF2546002D05D000BFF6A299
:10431000CC212846FFF7E4FF00BF00F0CAFC70473D
:1043200038B50446204602F0A0FF684603F024FAA0
:104330000546002D04D10098002801D1FFF7EFFFBA
:1043400038BDF8B50746EB480078002832D0EA4877
:104350000068E34988600020E6490870E748007873
:1043600000280CD0E6480068401CE5490860084673
:10437000006814280FD30020E04908700BE0E048E3
:104380000068401EDE49086008460068002802D127
:104390000120DA490870DA480068002802D10124B7
:1043A000640413E0D64800686421081A06214843D3
:1043B000441D0BE0D0480068C949C8600120CD49C0
:1043C0000870CF48006806214843441D002221465A
:1043D000CC48006802F03AFC054600BF2E46002E8D
:1043E00006D000BFC0A2FF211E313046FFF778FF84
:1043F00000BFF8BD70B50F2000F06BFC0C2000F082
:1044000068FC102000F065FC0F2000F06BFC0C2015
:1044100000F068FC102000F065FCBB4A0021B948A0
:1044200002F0A8FB044600BF2546002D06D000BFC1
:10443000ADA2FF2132312846FFF752FF00BF002214
:10444000B249B048006802F001FC044600BF2546AE
:10445000002D06D000BFA4A2FF2135312846FFF76A
:104460003FFF00BF70BD70B5A0B00446012C36D12F
:1044700004211091592168468186A5490F91172181
:1044800001873C2111A803F00EFA002011900121B0
:1044900010A8818110A914910DA81D90002111A8C8
:1044A00001F054F9054600BF2E46002E06D000BF8D
:1044B0008DA2FF2153313046FFF712FF00BF1421B8
:1044C000944803F0F0F903209249087000204860F6
:1044D00008721320800108820020488247E0002CE7
:1044E0003CD1052101918C48006800908B48817E69
:1044F000684681703C2111A803F0D5F90220119083
:10450000012110A84172818101A914913C2102A8C6
:1045100003F0C9F901216846818469460A9102A91C
:1045200011A801F013F9054600BF2E46002E06D053
:1045300000BF6DA2FF2173313046FFF7D1FE00BFEF
:104540001421744803F0AFF90020724908704860E4
:104550000872A02008821E20488208E000BF00BF29
:1045600000BF61A2FF2180310020FFF7B9FE20B01B
:1045700070BD70B5674873DF044600BF2546002D47
:1045800006D000BF58A2FF218B312846FFF7A8FEB6
:1045900000BF70BD70B53DDF044600BF2546002D4D
:1045A00006D000BF50A2FF2193312846FFF798FEA6
:1045B00000BF70BD0446122C01D1FFF7A0FE082CED
:1045C00001D1FFF79CFE00BF00BF00BF46A2FF2144
:1045D000A4310020FFF784FE70B500BF504B514A54
:1045E0000221514801F04EFA044600BF2546002D35
:1045F00006D000BF3CA2FF21B4312846FFF770FE71
:1046000000BF00BF70BDF8B50E46144618224748DB
:1046100001684748FFF7B8FD422045490870002E61
:1046200004D0012E0FD0022E1CD110E0207840497A
:10463000487461783E488174A0783D49C874E17837
:104640003B4801750FE02078394948750BE00020A0
:1046500005E0225C3649491C0A54411CC8B21028A6
:10466000F7DB00E000BF00BF1821324803F040F83C
:10467000054600BF2F46002F06D000BF1AA2FF211B
:10468000DB313846FFF72CFE00BF002318222849F3
:10469000284802F071FF054600BF2F46002F06D0C4
:1046A00000BF11A2FF21DE313846FFF719FE00BF1F
:1046B000F8BD3EB500BF6846007801090901491CF4
:1046C000009168460078F02188431030009000BFC8
:1046D0000D2219A168467CDF044600BF254633E061
:1046E00000050050EFBEADDE2E2E5C6D61696E2EB2
:1046F0006300000023200020082000202820002044
:104700002420002058200020434301008F02000095
:104710000C2000208C2400206C7A010068240020EA
:10472000EF4C0100660600002C20002044200020F1
:10473000FC20002048200020426561636F6E20430A
:104740006F6E666967000000002D06D000BFFE4A4C
:10475000FF21EF312846FFF7C3FD00BF0020019085
:104760000290FF219131684681804900C18000217B
:104770000181FF219131418101A87ADF044600BF08
:104780002546002D06D000BFEF4AFF21F93128460B
:10479000FFF7A6FD00BF3EBD7CB5EC480090EC489D
:1047A00001906946EB4800F0D1FC044600BF254665
:1047B000002D05D000BFE44AE7492846FFF790FDE9
:1047C00000BF7CBD1E20E54908800846807840086F
:1047D000400088700846807802218843DF4988704D
:1047E000084680781C2188430C30DC4988700846D4
:1047F000807820218843D94988700720C87010200C
:104800000871704770B505462868002810D13B2113
:10481000D348008876DF044600BF2646002E06D027
:1048200000BFC94ACC4921313046FFF759FD00BFCE
:1048300070BD044600BFC44AC7492C312046FFF76B
:104840004FFD30B587B01C21684603F02CF80020DE
:1048500000900520400401908010029003216846DA
:1048600001730021C1810174BE480590BE480690C5
:10487000684602F0D8FA044600BF2546002D06D04F
:1048800000BFB14AB44943312846FFF729FD00BFB4
:1048900007B030BDF8B504460026208814282CD077
:1048A00006DC10280BD011280DD013283FD110E0C2
:1048B00017281CD0192834D0522838D110E0A088ED
:1048C000A749088034E00020C043A5490880FFF7CD
:1048D00016FDA24A0021A24800887FDF064627E095
:1048E000002211469E480088A9DF064620E03222B9
:1048F000A11D9E4802F078FF1AE09C4DAD1D29884D
:10490000E089814206D1002229469548008881DF4E
:10491000064605E0002211469148008881DF0646E0
:1049200006E0A079002801D1FFF7E9FC00E000BF14
:1049300000BF00BF3746002F06D000BF824A86491D
:1049400081313846FFF7CCFC00BFF8BD10B50446F6
:104950002046FFF79FFF204602F039FB21467D48A5
:1049600000F080FA10BD70B500BF814B5022814924
:10497000082000F090FF054600BF2E46002E06D00E
:1049800000BF714A74499B313046FFF7A9FC00BF54
:1049900000BF794800F0B4FF044600BF2546002D53
:1049A00006D000BF684A6C499F312846FFF798FC43
:1049B00000BF724800F0ADFF044600BF2546002D41
:1049C00006D000BF604A6449A3312846FFF788FC3F
:1049D00000BF70BDF8B507461446069E00BF2546C9
:1049E000002D06D000BF584A5B49B0312846FFF77A
:1049F00077FC00BFF8BD8AB00020099000BF604A74
:104A00000A21082001F02CFB054600BF2E46002E8F
:104A100006D000BF4C4A5049BD313046FFF760FC1C
:104A200000BF00BF00BF0020564B042203210090AE
:104A300002F021F8054600BF2E46002E06D000BF2A
:104A4000414AB12189003046FFF74AFC00BF00BF50
:104A500000BF4D49022001F090F9054600BF2E46E7
:104A6000002E06D000BF384A3B49BF313046FFF721
:104A700037FC00BF00BFFFF7AFFDFFF7BBFC01F045
:104A80005FF8044600BF2546002D06D000BF2E4A21
:104A90003149C4312846FFF723FC00BF09A9122081
:104AA00001F06FF8044600BF2546002D06D000BF78
:104AB000254A2949C7312846FFF712FC00BFFFF7F6
:104AC00052FF02F034FC044600BF2546002D06D0FC
:104AD00000BF1D4A2049CC312846FFF701FC00BF2A
:104AE0002A480790182168460184012141842849F9
:104AF00007A802F054FC044600BF2546002D06D04E
:104B000000BF114A1449D3312846FFF7E9FB00BF23
:104B10001F4840681F49086008460068007842281E
:104B20007ED042216846017110220949891C401D2E
:104B300002F05AFE00210648817468464175012141
:104B40000348C17401A827E0E846010007460100B8
:104B50000C200020682400200602000050200020C5
:104B600004200020054801003348010014210020E2
:104B7000C54C0100482100204D490100214301009E
:104B8000982100204822002040240020D54901001F
:104B90004820002044200020817400216F480175C6
:104BA0006846C1756E480068C1B26C48417501A87D
:104BB0000175BB21694881756846417618216948AD
:104BC00002F096FD044600BF2546002D05D000BF2B
:104BD000654A66492846FFF783FB00BF0023182279
:104BE00001A9604802F0C8FC044600BF2546002D1C
:104BF00006D000BF5C4A5D49C91C2846FFF770FB20
:104C000000BF02F0CBFD044600BF2546002D06D0B4
:104C100000BF554A2F2109012846FFF761FB00E03C
:104C200001E000BF1CE0102251480168491C4B48BC
:104C3000801C02F0D9FD4E480068407C47498874CA
:104C40004B480068807CC87449480068C07C08757F
:104C500047480068007D487545480068407D887574
:104C600008A80079002812D0FFF723FDFFF794FD74
:104C70000020FFF7F8FBFFF7E4FDFFF7A3FD3D4839
:104C800000681121090308433A49086009E001203E
:104C9000FFF7E9FB374800680321C903084335499A
:104CA0000860FFF766FC00BF01F0C2FAFFF772FC74
:104CB000FAE7BFF34F8F30483049C860BFF34F8FDA
:104CC00000BFFEE710B52E4A0021084601F0E8F9C2
:104CD00010BD01210522120707231B02D2188300F1
:104CE000D150704701218140264A916070477CB5C0
:104CF00004460D46009468460571234A082101F0D8
:104D0000CFF97CBD70B506460C4600BF002C01D122
:104D1000012000E000200546002D04D100BF1BA2A9
:104D20009821FFF7DDFA00BF00F061FD70BDF8B516
:104D300004460D46264600BF082D01D1012000E0A3
:104D400000200746002F04D100BF1EA29B21FFF7C1
:104D5000C7FA00BF307931688847F8BD0C200020C1
:104D60008000001048200020E8460100EA02000010
:104D700044200020082000200400FA0500ED00E097
:104D8000054D0100000500502F4D01002E2E5C2E18
:104D90002E5C2E2E5C2E2E5C2E2E5C496E636C7566
:104DA00064655C73645F636F6D6D6F6E5C736F667B
:104DB000746465766963655F68616E646C65722EA4
:104DC000680000002E2E5C2E2E5C2E2E5C2E2E5C9B
:104DD0002E2E5C496E636C7564655C6170705F63F8
:104DE0006F6D6D6F6E5C6170705F627574746F6E05
:104DF0002E6800008A88828370470022D243828313
:104E0000704770B505460E46B41D286A002800D1CB
:104E100070BD20886988884208D1208B042805D17C
:104E200022461A32002128462B6A98472088698931
:104E3000884208D1208B012805D122461A3201214F
:104E400028462B6A98472088698A884208D1208B97
:104E5000102805D122461A32022128462B6A98478B
:104E600000BFD5E770B505460C462088102804D051
:104E7000112807D050280FD109E021462846FFF716
:104E8000B9FF0AE021462846FFF7B7FF05E02146B3
:104E90002846FFF7B6FF00E000BF00BF70BD30B589
:104EA0008FB004460D461C2108A802F0FCFC08A89F
:104EB000007802218843811C08A80170007808212D
:104EC0008843411808A80170002009900B900C90AD
:104ED0000D900E90A17E68468172BE49018100202E
:104EE000019000BF6846007901090901491C684624
:104EF00001710079F021884310306946087100BFC4
:104F000000BF6846407901090901491C68464171A2
:104F10004079F021884310306946487100BF6846E7
:104F2000807906218843811C684681718079082137
:104F30008843014668468171807910218843014683
:104F40006846817180794108490068468171142161
:104F500003A802F0A8FC02A8039001A80490042171
:104F6000684681820021C182042101836868123071
:104F700007902088A31C03AA08A9A2DF0FB030BDA8
:104F800030B58FB004460D461C2108A802F08BFCFA
:104F900008A8007802218843811C08A801700078C5
:104FA00008218843411808A80170002009900B903F
:104FB0000C900D900E90A17E684681728549491E25
:104FC00001810020019000BF6846007901090901B4
:104FD000491C684601710079F02188431030694608
:104FE000087100BF00BF6846407901090901491CEA
:104FF000684641714079F021884310306946487114
:1050000000BF6846807906218843811C684681710B
:105010008079082188430146684681718079102192
:105020008843014668468171807941084900684695
:105030008171142103A802F036FC02A8039001A894
:1050400004900121684681820021C18201210183EF
:10505000686816300790208823460A3303AA08A9F7
:10506000A2DF0FB030BD30B58FB004460D461C2115
:1050700008A802F018FC08A8007802218843811CC7
:1050800008A80170007808218843411808A8017019
:10509000002009900B900C900D900E90A17E684618
:1050A00081724C49891E01810020019000BF684631
:1050B000007901090901491C684601710079F02154
:1050C000884310306946087100BF00BF68464079C8
:1050D00001090901491C684641714079F021884362
:1050E00010306946487100BF6846807906218843C0
:1050F000811C684681718079082188430146684691
:1051000081718079102188430146684681718079D8
:105110004108490068468171142103A802F0C3FBCD
:1051200002A8039001A80490102168468182002102
:10513000C182102101836868801C07902088234663
:10514000123303AA08A9A2DF0FB030BD70B586B034
:1051500004460E460020C043A083306820621E4BE8
:105160000FCB01AD0FC521461A3101A862DF0546FC
:10517000002D02D0284606B070BDA17E684681751C
:105180001449C91E8182224605A90120A0DF0546D7
:10519000002D01D02846EEE731462046FFF77FFE7E
:1051A0000546002D01D02846E5E731462046FFF7A9
:1051B000E7FE0546002D01D02846DCE731462046B3
:1051C000FFF751FF0546002D01D02846D3E7002008
:1051D000D1E7000026150000707A0100F7B584B011
:1051E00004460F4606980678B01C1F2803DC207979
:1051F000801C1F2802DD0C2007B0F0BD1F20801B83
:10520000801E85B20295B11C781802A97DDF03903B
:105210000398002801D00398EEE72068022808D1FF
:1052200068460089A84204DC092001906846058987
:105230000BE0082001902079002804D02079A842B2
:1052400001DC257901E068460589681CC2B2304658
:10525000711CCEB23A543046721CD6B20199395400
:1052600006980178A81C0818C1B2069801700020A1
:10527000C2E7F8B505460C462078001D1F2801DD61
:105280000C20F8BD684679DF0646002E01D0304676
:10529000F7E703212278501C2070A95419212278A5
:1052A000501C2070A954207841196846008800F0ED
:1052B0008AFA2178401820700020E2E7F8B5054608
:1052C0000F4616461C466868002801D10720F8BD25
:1052D0002078801C298840181F2801DD0C20F6E763
:1052E0002878401CC1B22278501C2070B15421781B
:1052F000481C207077542A8823789819696802F02E
:1053000073FA20782978401820700020DFE730B544
:1053100003461078C01C1F2801DD0C2030BD02247C
:105320001578681C10704C550A241578681C10708C
:105330004C551578681C10704B550020EEE7FFB5F2
:1053400087B006461D46109C0020069020780590E8
:10535000002747E0B900706841180A886846028152
:1053600049884181002203A902A864DF04900498BF
:10537000002802D004980BB0F0BD6846017B099864
:1053800081422ED10698002801D0002000E00220A2
:10539000019020786946097B4118019808181F2858
:1053A00001DD0C20E7E70698002809D12078401C91
:1053B00020702278511C08982170A8540120069072
:1053C0002078421903A902A864DF049004980028F9
:1053D00001D00498CFE720786946097B40182070F7
:1053E00000BF7F1C3088B842B4DC0698002806D085
:1053F00021780598401C081AC1B20598295400204C
:10540000B9E7FFB581B0074615460A9E009602220D
:105410003846049B0299FFF792FF0446002C02D005
:10542000204605B0F0BD0096102229463846049B60
:10543000FFF785FF0446002C01D02046F1E700204D
:10544000EFE701460888062808DB08881922D20100
:10545000904205DD0888E04A904201D0072070475D
:105460004888062808DB48881922D201904205DDC9
:105470004888D94A904201D00720F0E70888D64AE8
:10548000904208D04888904205D008884A889042C7
:1054900001DD0720E3E70020E1E7F8B506460D4609
:1054A00014462078801D1F2801D90C20F8BD3046F5
:1054B000FFF7C7FF0746002F01D03846F6E7052162
:1054C0002278501C2070A95412212278501C207080
:1054D000A95422785119308800F075F921784018C4
:1054E000207022785119708800F06DF921784018E9
:1054F00020700020DAE7F8B505460E4614462879F4
:10550000801CC7B22078801CC0191F2801DD0C2028
:10551000F8BD781CC1B22278501C2070B154FF2114
:105520002278501C2070B15422789119288800F0FC
:105530004AF9217840182070A88800280EDDA86854
:10554000002801D10720E3E7AA8823789819A968E1
:1055500002F04AF920782979401820700020D7E716
:10556000FEB507460E461446786B002801D1072089
:10557000FEBD0020019032E0796B0C22019850436F
:105580000D182879801CC0B200900098401CC1B250
:105590002278501C2070B15416212278501C2070A3
:1055A000B15422789119288800F00DF9217840181B
:1055B0002070A88800280EDDA868002801D10720E7
:1055C000D6E7AA8823789819A96802F00DF92078FF
:1055D0002979401820700198401CC0B201903820F1
:1055E000C15D01988142C7DC0020C1E7F8B50446DF
:1055F0000F4616460025002030702068002809D08C
:10560000324639462046FFF7E9FD0546002D01D018
:105610002846F8BD6079002808D031463846FFF7A3
:1056200028FE0546002D01D02846F2E720890028F3
:105630000BDD33463A46012120460830FFF73EFE97
:105640000546002D01D02846E3E7206900280BD04D
:1056500000202169085632463946FFF758FE0546B4
:10566000002D01D02846D4E7A08A00280CDD3B4657
:1056700006220221204614300096FFF7C2FE05469E
:10568000002D01D02846C4E7A08B00280CDD3B4646
:105690000722032120461C300096FFF7B2FE054684
:1056A000002D01D02846B4E7A08C00280CDD3B4635
:1056B00015221421204624300096FFF7A2FE05464D
:1056C000002D01D02846A4E7E06A002809D0324620
:1056D0003946E06AFFF7E1FE0546002D01D0284675
:1056E00097E7206B002809D032463946206BFFF738
:1056F00002FF0546002D01D028468AE73820005DCC
:10570000002809DD324639462046FFF729FF0546C5
:10571000002D01D028467CE728467AE70146088913
:10572000002807D0C868002804D0C8680078042280
:10573000104201D1072070470020FCE7014608898C
:10574000002801DD072070470020FCE7F3B593B087
:105750000D460021129111911398002814D013982E
:10576000FFF7DCFF0446002C02D0204615B0F0BD48
:1057700012AA09A91398FFF739FF0446002C01D09B
:105780002046F3E709AE00E00026002D13D028469E
:10579000FFF7D4FF0446002C01D02046E6E711AA0B
:1057A00001A92846FFF722FF0446002C01D020461D
:1057B000DCE701AF00E0002710A803793A46017A40
:1057C000304672DFD2E702460A70FF200002104026
:1057D0000012487002207047FFFF000070B50646B7
:1057E0000C46154629462046FEF782FD70BDF8B5E9
:1057F00059480078002800D1F8BD584800680028B2
:1058000001D1012000E0002005465548006800282D
:1058100001D1012000E00020064600BF002D14D178
:1058200068464EDF0446052C01D101250CE0002C12
:1058300006D000BF4BA269212046FEF751FD03E0D0
:10584000464900980968884700BF002E1AD153487E
:105850000088009069465248006860DF0446052CC5
:1058600001D101260DE0002C06D000BF3DA2802111
:105870002046FEF735FD04E04948006838490968CC
:10588000884700BF002D02D0002E00D000E0C5E701
:1058900000BF00BFB0E7FFB581B00C4616461F46FB
:1058A000002C02D1072005B0F0BD20468107890FEA
:1058B00001D1012100E00021002901D10720F2E7F8
:1058C00037480460354806803648076036490198F5
:1058D00010DF0546002D01D02846E4E701201E49CF
:1058E0000870162023DFDEE710B511DF0446002C18
:1058F00001D0012000E0002017490870204610BDAB
:105900000146002901D10E20704715480160002092
:10591000FAE70146002901D10E2070470F480160C7
:105920000020FAE770B51F480068002811D01D4814
:1059300000688047044600BF2546002D07D000BF01
:1059400008A2FF2133312846FEF7CAFC00BF00BF82
:1059500001E0FFF74CFF70BD5C20002070200020AC
:105960006C2000202E2E5C2E2E5C2E2E5C2E2E5CAB
:105970002E2E5C536F757263655C73645F636F6D2D
:105980006D6F6E5C736F66746465766963655F687E
:10599000616E646C65722E63000000006820002058
:1059A0006420002060200020DD57010070B504460F
:1059B0008A480068002812D02178884AA0681268B6
:1059C0009047054600BF2E46002E06D000BF84A299
:1059D00029213046FEF784FC00BF00BF02E020789A
:1059E000A168884770BDF1B582B00027029C694666
:1059F0008748007800F0CFFA01900198002800D085
:105A0000FEBD84490098096808400746824800683E
:105A1000009988430743204638400446002C18D09C
:105A2000002511E00C2068437C490968461831784C
:105A300001208840204205D0B068002802D03046BE
:105A4000FFF7B4FF681CC5B2754800788542E9DBF2
:105A500000BF00BFD4E770B504460D46714800682A
:105A600001F025F90646002E00D070BD20462843DF
:105A700002466D4801686B48006801F0E7F8064689
:105A800000BFF2E7FFB583B005460C461646052E6B
:105A900002D2072007B0F0BD60480560604804707E
:105AA000614806604D490698086000205949086021
:105AB000594908602CE00C21614348190278019291
:105AC00041680291029989000522120707231B02EF
:105AD000D318019A9200995000BF4178002901D053
:105AE000012100E00021027891404A4A12681143E6
:105AF000484A11604178002901D1012100E00021CC
:105B000002789140444A12681143434A116000BF31
:105B10002046611ECCB20028CDD1444B3E480268DD
:105B20003C4801683A4800F061F90746002F01D06F
:105B30003846AFE73E4A00213A4801F01BF8A9E792
:105B400010B536480068002801D1082010BD304843
:105B5000007800F090F9F9E710B5304800680028A7
:105B600001D1082010BD2A48007800F0F3F904465E
:105B7000002C01D02046F5E72A48006801F097F88C
:105B8000F0E7F8B507460C460026244800680028D0
:105B900001D10820F8BD69461D48007800F0FBF9E6
:105BA0000546002D01D02846F4E70120B8400646FE
:105BB0000098064208D118480068304201D0012000
:105BC00000E00020207007E012480068304201D059
:105BD000012000E0002020700020DBE7882000206A
:105BE0002E2E5C2E2E5C2E2E5C2E2E5C2E2E5C53CA
:105BF0006F757263655C6170705F636F6D6D6F6E02
:105C00005C6170705F627574746F6E2E630000006B
:105C10008C200020802000207C2000207420002088
:105C2000782000209020002084200020575A010076
:105C3000E7590100F0B502460C46002035E001238B
:105C40008340194623460B422ED0D5680D4205D11C
:105C500001235B04D5680D43D56004E003231B04D6
:105C6000D5688D43D56005252D0707263602AD1969
:105C70008600AD5903263604B543052636070727A7
:105C80003F02F6198700F55105252D070726360234
:105C9000AD198600AD591D430526360707273F027B
:105CA000F6198700F55100BF401C2028C7D3F0BD6E
:105CB000FEB5E14806690020E049C863002527E0F9
:105CC00014206843DE49096844180120A840DD49D2
:105CD000096808421AD0E068C04370402168084053
:105CE000074639462046FFF7A5FFA068B043384075
:105CF0000090606830403840019000990198084356
:105D000003D0226900990198904700BF681CC5B272
:105D1000CD4800788542D3DBFEBD10B5014600209A
:105D200028E014224A43C64B1B689A58012383403B
:105D30001A421ED00522120707231B02D218830025
:105D4000D25803231B049A4305231B07072424026C
:105D50001B1984001A510522120707231B02D218AF
:105D60008300D25805231B07072424021B19840033
:105D70001A51401C2028D4D310BD70B505460C46DE
:105D8000002C01D1072070BD20468107890F01D169
:105D9000012100E00021002901D10720F3E7A848F4
:105DA0000460AA4805700020A7490870A54908604A
:105DB000A6480078142250430146A148006801F02B
:105DC00072FD0020C043A249886006200121814065
:105DD000A04A116000BF012100F0F7F80620012160
:105DE00081409D4A116000BF0020CCE7F8B5044611
:105DF0000D4616461F4692480068002801D108202B
:105E0000F8BD002F01D10720FAE78F4800788F49AD
:105E10000978884201DB0420F2E7284630438A49AA
:105E2000097814225143864A1268505086480078F7
:105E30001421484382490968401845608248007827
:105E4000142148437E490968401886607E480078DE
:105E5000142148437A490968401807617A48007854
:105E6000207079480078401C774908702078FFF747
:105E700054FF0020C4E7F0B50246714800680028CE
:105E800001D10820F0BD70480078824201DB072074
:105E9000F8E70020694BD8636748046969480068DF
:105EA000002802D158066A4B586001209040654B8B
:105EB0001B681843634B1860002314205043604D47
:105EC0002D684019C360002140E001238B40184633
:105ED000142353435A4D2D68EB58034235D02546C1
:105EE000054202D003231B040EE001235B041425AA
:105EF0005543534E3668AD19ED6805431426564395
:105F00004F4F3F68F619F56005252D070726360225
:105F1000AD198E00AD5903263604B5430526360764
:105F200007273F02F6198F00F55105252D07072693
:105F30003602AD198E00AD591D43052636070727D9
:105F40003F02F6198F00F55100BF491C2029BCD330
:105F5000002097E710B5044639480068002801D1B1
:105F6000082010BD38480078844201DB0720F8E79C
:105F70002046FFF7D2FE0120A04032490968814344
:105F8000304801600068002803D10120C007304973
:105F900088600020E5E710B502462948006800281F
:105FA00001D1082010BD28480078824201DB07207B
:105FB000F8E714205043224C246803191E48006956
:105FC0001C68204008600020ECE710B5002819DAB2
:105FD000224A03071B0F083B9B089B00D2588307EC
:105FE000DC0EFF23A3409A438B071B0E8407E40EAD
:105FF000A3401A43194B0407240F083CA408A4002B
:106000001A5118E0144A03231B02D21883089B007C
:10601000D2588307DC0EFF23A3409A438B071B0E45
:106020008407E40EA3401A430B4B032424021B19DC
:106030008408A4001A5110BD0005005040610040C2
:1060400094200020982000209D2000209C200020EB
:106050000063004080E200E000E100E01CED00E0B1
:1060600030B50346481CC004040C10468507AD0F2C
:1060700001D1012500E00025002D01D1072030BD10
:10608000784802601019784D28600020774D2870FC
:10609000774D287077480380774801800020EEE72D
:1060A000F7B584B00C467348008884427EDC734D9B
:1060B0000020039000BF72484068C105C90D002947
:1060C0001ED00A46103A104600280CDA6C4B1C33DE
:1060D00007073F0F083FBF08BF00DB598707FF0EC8
:1060E000FB409B090AE0674B03273F02DB19870847
:1060F000BF00DB598707FF0EFB409B09D8B200E0C9
:10610000042002900298012814D003A82BDF074630
:10611000022F01D172B60CE000BF0197019F002F42
:1061200006D000BF58A259210198FEF7D9F800BF48
:1061300000BF00BF4D48007800F089F84C4909784D
:10614000884206D049480578007800F080F8474931
:1061500008700298012814D062B66846007B2CDFD4
:106160000746022F0CD000BF0197019F002F06D0D9
:1061700000BF45A261210198FEF7B2F800BF00BF41
:1061800000BF3E48854223D0E900364A069812688F
:1061900050500498002813D0002C11DD354909888F
:1061A0006943314A12688818224600E012E00499D7
:1061B00001F01AFBE8002B4909684018848005E0CB
:1061C0000020E900274A126889188880002600E02C
:1061D000042600E00926304607B0F0BDF8B50546B4
:1061E0000E4617460520009020480078204909787F
:1061F00088421BD01E480478007800F028F81C491B
:1062000008701C48008860431749096840182860D6
:10621000E00014490968401880883080E000114986
:106220000968085838600020009000BF0098F8BD49
:106230000EB504E068468188009A029890476A4645
:1062400001A902A8FFF7CAFF0028F3D00EBD01463E
:1062500009480088814201DA481C00E00020C0B2F1
:1062600070470000A0200020A4200020A9200020CA
:10627000A8200020AA200020AC200020FFFF000062
:1062800000ED00E000E100E02E2E5C2E2E5C2E2EB4
:106290005C2E2E5C2E2E5C536F757263655C617094
:1062A000705F636F6D6D6F6E5C6170705F7363685C
:1062B0006564756C65722E630000000010B50028DF
:1062C00019DAFE4A03071B0F083B9B089B00D258B4
:1062D0008307DC0EFF23A3409A438B071B0E840722
:1062E000E40EA3401A43F54B0407240F083CA4080E
:1062F000A4001A5118E0F24A03231B02D2188308A3
:106300009B00D2588307DC0EFF23A3409A438B07E0
:106310001B0E8407E40EA3401A43E94B0324240216
:106320001B198408A4001A5110BD10B50446E54895
:10633000846003211120FFF7C1FF10BD10B50120BB
:106340000004E1494860E04940394860112000F00C
:10635000F9FC112000F0E8FC0120DC4908602F2046
:10636000FDF702FF10BD10B5112001218140D44A74
:106370008032116000BF01200004D3498860D249F7
:10638000403988600120D14948602F20FDF7ECFE9C
:1063900010BDF0B5024628205043CD4B1B68C118F4
:1063A000CC480068401C02D1CA48026057E0C94886
:1063B0008B68006828246043C54C246800198068F5
:1063C000834217D8C348006828235843C04B1B6832
:1063D000C01880688B68C31ABE48006828246043D0
:1063E000BB4C246800198360BA4800684862B94809
:1063F000026034E08B68B74D2C6828680DE02825D2
:106400004543B34E3668AD19AD685B1B044628257D
:106410004543AF4E3668AD19686A451C07D028253C
:106420004543AB4E3668AD19AD689D42E7D3451C78
:106430000CD028254543A64E3668AD19AD68EE1A36
:1064400028254543A24F3F68ED19AE608B60486236
:10645000282565439E4E3668AD196A6200BFF0BDBF
:1064600070B502469B4C2168084609E0904200D175
:1064700008E0014628244443954D2D686419606A5C
:10648000441CF3D100BF441C00D170BD814209D12E
:10649000904C246828256C438D4D2D686419646ADE
:1064A0008C4D2C6028244443894D2D686419A368C1
:1064B00028244443864D2D686419656A28244C437A
:1064C000834E3668A419656228244C43804D2D689C
:1064D0006419606A441C0CD0282444437C4D2D6808
:1064E0006419A468E51828244443794E3668A41931
:1064F000A56000BFC9E710B5112000F01CFC10BD5D
:1065000010B5142000F017FC10BD70B50446724899
:106510000068002813D0704A216AE0691268904729
:10652000054600BF2E46002E07D000BF6BA2FF21FC
:1065300055313046FDF7D4FE00BF00BF02E0E169EF
:10654000206A884770BDF8B562480068401C39D0A1
:10655000002700F0FFFB04466C480168204600F06D
:10656000FCFB06465B48056811E028206843584953
:1065700009684418A068B04200D90AE0A068361A39
:10658000A068C719656A2046FFF7BFFF00BF681CF7
:10659000EBD100BF5E4800785E490978884209D196
:1065A0005C480078401CC0B25A490870022801D1EA
:1065B0000020087057480078800057490F50FFF7B7
:1065C0009FFF00BFF8BD014651480078514A12783C
:1065D00090421DD04E480078401C4D4A1070104625
:1065E0000078022801D1002010704948007880000E
:1065F000494A10580860454A086812688018434A9A
:106600001060104600680002000A10600120704708
:106610000020086000BFFAE7FEB52E480068019030
:106620003E48007800903FE00098C0003C4909686F
:106630004418257834E01820684361680F18681CF6
:10664000C5B2A078A84200D100253868022802D03F
:10665000032822D10EE02821786848431C490968A4
:106660004618307E002804D07868FFF7F9FE002035
:10667000307613E00CE01749096828225143144A88
:106680001268881800210176124A416A116000BF21
:1066900010480068401CEED100E000BF00BF00BF02
:1066A0006078A842C7D100BF0098411EC9B20091CE
:1066B0000028B9D107480168019833E01CED00E0DB
:1066C00000E100E0001501404013014000100140CE
:1066D000B0200020BC200020D02000202E2E5C2ED8
:1066E0002E5C2E2E5C2E2E5C2E2E5C536F757263EC
:1066F000655C6170705F636F6D6D6F6E5C61707013
:106700005F74696D65722E6300000000C020002078
:10671000CC200020CD200020C4200020B520002067
:10672000B8200020814201D00120FEBD0020FCE7FE
:10673000F0B50346002426E0FE4E366828277E4347
:10674000FD4F3F68F01986689E4203D98668F61AA5
:1067500086601CE086689B1B86683419002686606C
:106760000676F44E3568F34F466A3E604669002E61
:1067700008D00E193602360AC660466906611668E8
:106780004662156000BFEB480068401CD4D100BFD2
:10679000F0BDFEB50746E74800680290E74800787C
:1067A000019069E00198C000E549096845185CE07E
:1067B000781C07D03E4628207043DF4909684418FA
:1067C000676A23E02978182359436A6850182978A2
:1067D000491C29702978AA78914201D10021297099
:1067E000466828217143D44A12688C18016801292F
:1067F00002D1217E002900D037E08168E160C168C4
:106800002161016961614169216200BFCD49E06890
:106810000968401A0002000ACB49884208D2C949D7
:10682000E068096800F099FA21694018A06011E059
:10683000C448E168006800F090FA0090216900986F
:10684000814204D921690098081AA06001E0002063
:10685000A06000BF0020E060206101202076801E43
:1068600060623046FFF795FD00BF781CA0D1287804
:10687000697888429CD100BF0198411EC9B201913C
:1068800000288FD1AB4801680298814201D00120D5
:10689000FEBD0020FCE7FEB50546A6480068401C8A
:1068A00034D0A448006828214843A3490968401807
:1068B000866800F04FFA0290A248046821460298C8
:1068C00000F04BFAC01C0190681C01D1FFF736FDA7
:1068D0000198B04201D2304600E001980419240228
:1068E000240A20469949086000BF00F033FA00905E
:1068F0000299009800F031FAC71C2046029900F076
:106900002CFA874201D9FFF7F6FD01E0FFF72BFDD6
:10691000FEBDFEB50020C04301908A48046885484A
:1069200007686846FFF74FFE0546FFF775FE064607
:10693000002D05D001AA21460098FFF7F9FE012697
:106940000198FFF726FF002800D00126002E02D074
:106950003846FFF7A0FFFEBD4170704770B5024694
:106960000B465078411C9078884200D10021107865
:10697000884201D1002070BD1960507818267043FC
:1069800055682C182046F6E7FFB581B005460E463F
:106990001746E9006A4A126888186946FFF7DEFF61
:1069A0000446002C02D1042005B0F0BD0120206077
:1069B000666000F0CFF9A060E760049820610A9853
:1069C0006061E9005E4A126888180099FFF7C4FF09
:1069D000FFF796FD0020E7E7F8B504460E46E10014
:1069E000574A126888186946FFF7B8FF0546002D18
:1069F00001D10420F8BD022028606E60E100504AF9
:106A0000126888180099FFF7A7FFFFF779FD0020AB
:106A1000F0E738B50446E100494A1268881869462B
:106A2000FFF79CFF0546002D01D1042038BD03204F
:106A30002860001F6860E100414A126888180099C8
:106A4000FFF78AFFFFF75CFD0020EFE710B500209D
:106A50003F49086000213E4841608160C1600020DC
:106A60003B49403908604860FFF76DFD10BD10B527
:106A7000FFF74FFF10BDFFB581B00E4617461C460D
:106A800020468107890F01D1012100E00021002962
:106A900002D1072005B0F0BD002C01D10720F9E795
:106AA000FFF761FC2B490A9808602B4806702248C2
:106AB000046000250CE00021282068431E4A12686B
:106AC0001150282068431C4A1268801801766D1CFA
:106AD000B542F0DB282070430419032017490870E1
:106AE00017480460183400250CE0E900144A1268C5
:106AF0008818002101704170877044601821794323
:106B00000C196D1C032DF0DB0020C04309490860FF
:106B100000201249087012490870142000F012F980
:106B200003211420FFF7CAFB142000F0FDF80198A0
:106B300018E00000BC200020B0200020B52000207C
:106B4000B8200020C0200020FFFF7F00401501403A
:106B500040110140D0200020B4200020CC20002093
:106B6000CD200020FFF7E1FB00F0F4F87D4908603C
:106B700000208FE770B503460C467B48006800286C
:106B800001D1082070BD002A01D10720FAE7002BAF
:106B900001D10720F6E700211CE028204843724D70
:106BA0002D682858002814D10125282048436E4E0E
:106BB00036683550282048436B4D2D684019446095
:106BC00028204843684D2D684019C2611960002093
:106BD000D8E7491C654800788142DEDB0420D1E714
:106BE00030B500BF62484068C205D20D002A1ED0F1
:106BF0001346103B184600280CDA5D4C1C34050780
:106C00002D0F083DAD08AD0064598507ED0EEC4031
:106C1000A4090AE0574C03252D0264198508AD002C
:106C200064598507ED0EEC40A409E0B200E00420B1
:106C3000012802D0032804D101E0002103E0012152
:106C400001E0022100BF00BF084630BDFEB504468A
:106C50000D46164644480068002801D10820FEBDB4
:106C600042480078844201D2052D01D20720F6E780
:106C7000282060433C4909680858012801D00820B1
:106C8000EDE728206043384909684018406801282A
:106C900001D1284600E000200746FFF7A1FF3B4650
:106CA0002A46214600960190FFF76EFED7E770B5A1
:106CB00004462D480068002801D1082070BD2B48EB
:106CC0000078844201D30720F8E728206043264952
:106CD00009680858012801D00820EFE7FFF780FF76
:106CE00005462146FFF778FEE8E710B51E48006824
:106CF000002801D1082010BDFFF772FF0446FFF7FE
:106D000088FEF8E710B5044600F024F82060002063
:106D100010BD70B505460E4614463146284600F0B3
:106D20001CF82060002070BDC206D20E01219140E7
:106D3000104A11607047C206D20E012191400E4ADE
:106D400011607047C206D20E012191400A4A80327A
:106D5000116070470948406870470246501A0002A7
:106D6000000A7047C0200020B0200020B42000207E
:106D700000ED00E000E100E000E200E0001501406D
:106D800001464888B74A1288904206DB4888B54ACF
:106D90005288904201DC012070470020FCE738B5A2
:106DA0000546B1480088B14988423BD0B0480078D8
:106DB000401CAF490870AF48007B097888420FDB60
:106DC000A849A948008875DF0446002C07D0A948C7
:106DD0008069002803D0A74881692046884721E0C0
:106DE0000020A3490870A348007C00280FD03B2155
:106DF0009D48008876DF0446002C07D09D488069B6
:106E0000002803D09B4881692046884700BF9948E5
:106E10004069002806D000200090964841696846E5
:106E2000884700BF38BD70B505461C2229469148E9
:106E3000FDF7AAF9002090490870286800280BD0B7
:106E400008228848296800F0CFFC86487ADF04468B
:106E5000002C08D0204670BD82487BDF0446002C01
:106E600001D02046F7E70020C0437F49088000207A
:106E70007F490870814A00218148FFF77BFEEAE7DD
:106E800010B57F480068FFF712FF10BD38B57D4888
:106E9000FFF776FF002829D17748007800280AD02C
:106EA00074484069002820D0002000907148416952
:106EB0006846884719E06E480078002802D16D487E
:106EC000456801E06B488568002229466C480068E7
:106ED000FFF7BCFE0446002C07D0664880690028F6
:106EE00003D064488169204688470AE061484069C8
:106EF000002806D0012000905E4841696846884716
:106F000000BF00205C49087038BD10B50446A08859
:106F100055490880082221460E315A4800F064FC89
:106F20000020534908705348C089002801D1FFF759
:106F3000ADFF10BD70B505460020C0434A4908802A
:106F400000204B4908704E480068FFF7B0FE044629
:106F5000002C07D047488069002803D04548816944
:106F60002046884770BD70B50546AC1D2088414954
:106F7000C989884220D1208B02281DD100BF00BFC3
:106F8000A17EE27E120211430846C107C90F002903
:106F900002D0FFF77BFF0FE039480068FFF787FE5C
:106FA0000646002E07D033488069002803D03148B8
:106FB00081693046884700BF70BD10B5044608227D
:106FC000A11D304800F010FCFFF760FF10BD10B5A8
:106FD00004462088102806D0112808D012280ED088
:106FE000502810D107E02046FFF78FFF0CE0204625
:106FF000FFF7A0FF08E02046FFF7B5FF04E02046BA
:10700000FFF7DBFF00E000BF00BF10BD38B504464E
:1070100008222146134800F0E7FB12487ADF0546B4
:10702000002D1CD11748FFF7ABFE00280BD1012023
:10703000114908700B490C48008875DF054601208E
:107040000B4908700BE00B484069002806D001206E
:107050000090084841696846884700BF00252846D7
:1070600038BD0000D6200020E0200020FFFF0000F7
:10707000DE200020A0240020D42000209F6D0100ED
:10708000EC200020E2200020002314214143FE4A8E
:1070900053541421414389184B8002231421414346
:1070A00089188B600023142141438918CB60142177
:1070B000414389180B611421414389188B80704723
:1070C00010B50020F1490880EF49091F0870487089
:1070D0008870002403E02046FFF7D6FF641C1E2CB6
:1070E000F9D310BDFEB50F26E748001F0078142124
:1070F0004843E5494418E0680190207804280CD101
:107100008006006981B2019800F0CFFBDF49098851
:107110004518284650DF064622E0207802281FD175
:107120002769DA48008885027F19A08841190198EB
:10713000081801906088401B009001218902009886
:10714000884206D2009882083946019851DF0646E7
:1071500005E0FF2201323946019851DF064600BFA3
:10716000002E03D10120C849091F88703046FEBD9A
:10717000FFB581B00646174600240425C248001F0B
:1071800040781E283AD0C048001F0078BE49091F29
:1071900049784018C4B21E2C02DB20461E38C4B207
:1071A00014206043B8490E5414206043401807610E
:1071B000142060434118029805C8CA6088601420F2
:1071C0006043B14A801804994180142161438918B1
:1071D0000A9888800025101F8078002807D1FFF7C3
:1071E00081FF0546002D01D0112D00D10025A648B4
:1071F000001F4078401CA449091F4870284605B06C
:10720000F0BDF8B50446A048001F0078142148439B
:107210009D490D5C081F0078142148439A49401885
:10722000806800019A490E58042D01D1002007E022
:107230009548001F0078142148439349401840881E
:107240009149091F00900978142251438E4A8918E8
:107250000B69111F0978142251438B4A891808467B
:10726000083022462946B047F8BDF8B50546002645
:107270008548001F8078012858D100208249091FC5
:107280008870022D02D0032D4DD148E07E48001FAA
:107290000078142148437C4947187C480088401CEA
:1072A0007A490880084600888002798888421DDB78
:1072B0003046FFF7A6FF7449091F0878FFF7E4FE80
:1072C0000020724908807048001F4078401E6E49B7
:1072D000091F487008460078401C0870084600786E
:1072E0001E2803DB084600781E38087000BF002403
:1072F0006548001F4078002809D0FFF7F3FE0446D8
:10730000002C04D0112C02D02046FFF77AFF00BFDA
:107310002646002E02D03046FFF773FF04E00D2012
:10732000FFF76FFF00E000BF00BF00BFF8BD10B562
:10733000FFF7C6FE00205749088057484069401CA7
:1073400008D001221207126991B2534A506900F025
:10735000ACFA02E0012000074069801E0121090704
:10736000096989B248434D490860002047490880AF
:1073700000BF0DE000210201454B99500201D218D7
:1073800011810201D21891810201D2185181401C51
:107390000228EFD3012042490870002010BDF8B543
:1073A00004460D4600BF3E480078002801D1082061
:1073B000F8BD00BF002C01D10E20F9E7002D01D14E
:1073C0000E20F5E72068002801D10E20F0E7A08804
:1073D00001210907096989B2884202DCA0881028C6
:1073E00001DA0720E4E7E08800281CD02A48406939
:1073F000401C08D001221207126991B2264A506936
:1074000000F053FA02E0012000074069012109075A
:10741000096989B24843E188A28851431F4A12682A
:107420008918884201D20720C2E71A48008802283A
:1074300001D10420BCE7174800882860174800687D
:107440006860144909880901114A89186868486008
:1074500010490988090120685050A0880D49098801
:10746000090189180881E0880A49098809018918F1
:1074700048810027A688E1884E4300BF781C87B268
:107480000120000700690DE0C0240020F820002042
:1074900018270020F220002000100010F420002007
:1074A000F020002080B2B04205D201200007006920
:1074B00080B2361A00E0002601200007006980B281
:1074C000C44909684018C3490860012000070069E1
:1074D00080B2B042D2D9C04800880001BF494018EC
:1074E0008781BD480088401CBB49088000205FE7B9
:1074F0003CB5034600BFBA480078002801D10820F7
:107500003CBD00BF002B01D10E20F9E7002A01D1BC
:107510000E20F5E71868022805D218680001AF4C64
:107520002058002801D10720EAE75C681868019418
:107530000090019C18680001A84D4019008948433B
:1075400020180190009800012C4600194089009CE9
:107550002401641924896043009C2401641964682F
:107560000019019CA04201D80720C9E7019C00989E
:10757000546010600020C3E7F8B504460D46164677
:107580001F4600BF96480078002801D10820F8BDAA
:1075900000BF002D01D10E20F9E7002C01D10E20F3
:1075A000F5E72068022805D2206800018B490858B9
:1075B000002801D10720EAE7206800018749401828
:1075C000408921680901854A891809894843216849
:1075D00009018918496840186168884201D8072064
:1075E000D5E7002E06D0206800017C4940180089AC
:1075F000B04201DA0720CAE7F01921680901774A89
:1076000089180989884201DD0720C0E7284600F073
:10761000D8F8002804D0E81900F0D3F8002801D1E8
:107620001020B4E733462A46214602200097FFF790
:107630009FFDACE7F8B507460C4615461E4600BF51
:1076400067480078002801D10820F8BD00BF002C51
:1076500001D10E20F9E7002F01D10E20F5E72068B7
:10766000022805D2206800015C490858002801D191
:107670000720EAE72068000158494018408921683E
:107680000901564A8918098948432168090189185E
:10769000496840186168884201D80720D5E7002D65
:1076A00006D0206800014D4940180089A84201DA3F
:1076B0000720CAE7A81921680901484A89180989D9
:1076C000884201DD0720C0E7384600F07AF800283C
:1076D00004D0B81900F075F8002801D11020B4E7E3
:1076E000606881192A46384600F07EF80020ACE731
:1076F000F8B504460F4600BF39480078002801D18C
:107700000820F8BD00BF002C01D10E20F9E7206849
:10771000022805D22068000130490858002801D10C
:107720000720EEE7206800012C49401840892168B5
:1077300009012A4A891809894843216809018918D9
:10774000496840186168884201D80720D9E7206855
:10775000000122494018868901210907096989B277
:107760004E430020B3B20246214600900420FFF7AA
:10777000FFFC05462846C4E7014600BF18480078CC
:10778000002801D10820704700BF002901D10E2038
:10779000F9E71448407808600020F4E738B5012084
:1077A000009000BFFEF744FD6846FFF7E5FF044682
:1077B000002C01D0204638BD00980028F2D100BF2F
:1077C000F9E701468807800F01D1012070470020AA
:1077D000FCE70000F4200020F22000201827002001
:1077E000F0200020BC240020F8B5042A2CD3830705
:1077F00012D00B78491C0370401C521E83070BD01B
:107800000B78491C0370401C521E830704D00B7870
:10781000491C0370401C521E8B079B0F05D0C91AD0
:10782000DF002023DE1B08C90AE0FCF7ADFCF8BD31
:107830001D4608C9FD401C46B4402C4310C0121F11
:10784000042AF5D2F308C91A521EF0D40B78491C49
:107850000370401C521EEAD40B78491C0370401C74
:10786000521EE4D409780170F8BD01E004C0091F7C
:107870000429FBD28B0701D50280801CC90700D0E8
:107880000270704700290BD0C30702D00270401C61
:10789000491E022904D3830702D50280801C891E59
:1078A000E3E70022EEE70022DFE7002203098B4234
:1078B0002CD3030A8B4211D300239C464EE003468F
:1078C0000B433CD4002243088B4231D303098B4243
:1078D0001CD3030A8B4201D394463FE0C3098B4279
:1078E00001D3CB01C01A524183098B4201D38B01D2
:1078F000C01A524143098B4201D34B01C01A524175
:1079000003098B4201D30B01C01A5241C3088B42B9
:1079100001D3CB00C01A524183088B4201D38B00A4
:10792000C01A524143088B4201D34B00C01A524146
:10793000411A00D201465241104670475DE0CA0F1D
:1079400000D04942031000D34042534000229C46DD
:1079500003098B422DD3030A8B4212D3FC228901E7
:1079600012BA030A8B420CD3890192118B4208D3BD
:10797000890192118B4204D389013AD0921100E01F
:107980008909C3098B4201D3CB01C01A5241830933
:107990008B4201D38B01C01A524143098B4201D360
:1079A0004B01C01A524103098B4201D30B01C01A8B
:1079B0005241C3088B4201D3CB00C01A5241830805
:1079C0008B4201D38B00C01A5241D9D243088B425B
:1079D00001D34B00C01A5241411A00D201466346FE
:1079E00052415B10104601D34042002B00D5494262
:1079F000704763465B1000D3404201B50020C0468B
:107A0000C04602BD704770477047754600F022F8C7
:107A1000AE46050069465346C008C000854618B00A
:107A200020B5FCF7DDFB60BC00274908B646002600
:107A3000C0C5C0C5C0C5C0C5C0C5C0C5C0C5C0C51E
:107A4000403D49008D4670470446C046C04620462A
:107A5000FCF783FB004870473827002001491820B5
:107A6000ABBEFEE7260002007047000023150000B1
:107A7000ADE8F3D4B88494A0AAF5E20F00005A95BB
:107A8000A07A010000200020FC0000000441010059
:107A90009C7B0100FC2000209C160000204101007E
:107AA0000024F400FFFF0000000000000215011296
:107AB000233445566778899AABBCCDDEEFF00102DE
:107AC0000304BB00000000000100000012000000E1
:107AD00003000000B545010008000000030000009D
:107AE000B54501000000000000000000000000009B
:107AF0000000000000000000000000000000000086
:107B00000000000000000000000000000000000075
:107B10000000000000000000000000000000000065
:107B20000000000000000000000000000000000055
:107B30000000000000000000000000000000000045
:107B40000000000000000000000000000000000035
:107B50000000000000000000000000000000000025
:107B60000000000000000000000000000000000015
:107B70000000000000000000000000000000000005
:107B800000000000000000000000000000000000F5
:0C7B9000000000000000000000000000E9
:04000005000140C1F5
:00000001FF
