:020000040001F9
:10600000302E00203961010053610100556101000B
:106010000000000000000000000000000000000080
:1060200000000000000000000000000057610100B7
:106030000000000000000000596101005B610100E8
:106040005D6101005D610100816401005D6101002D
:106050005D61010000000000AD6201005D610100B2
:106060005D6101005D6101005D6101005D61010034
:106070005D6101005D6101005D6101005D61010024
:106080005D610100956301005D6101005D610100DA
:10609000B56301005D610100096401005D610100FB
:1060A0005D6101005D610100000000000000000072
:1060B00000000000000000000000000000000000E0
:1060C0000348854600F0E0F8004800477984010065
:1060D000302E0020056885F3088846680A4AEFF3E9
:1060E00005839A42304602D1084CA6463047074CF9
:1060F000064D0646064FF0B4034C034D024E024FC8
:10610000F0B404480047000000000000FFFFFFFF5C
:1061100000000021F9FFFFFF401E00BF00BF00BFCD
:1061200000BF00BF00BF00BF00BF00BF00BF00BF77
:1061300000BFF1D1704700000321094802680A43FB
:106140000260084802680A4302600748804707481F
:106150000047FEE7FEE7FEE7FEE7FEE7FEE700009A
:1061600024050040540500402D640100C160010079
:1061700030B50B46014600202022012409E00D46DF
:10618000D5409D4205D31D469540491B2546954067
:1061900040191546521E002DF1DC30BDF0B51FB47C
:1061A0000646002082B005464024019100901BE085
:1061B000019922460F46304600F054F8049A059B98
:1061C000801A994110D310461946224600F03AF839
:1061D000361A8F410197224601200021009F00F0CE
:1061E00031F838184D4100902046641E0028DFDC4D
:1061F000019B00982946324607B0F0BD03460B4389
:106200009B0703D009E008C9121F08C0042AFAD26C
:1062100003E00B780370401C491C521EF9D27047F2
:10622000D2B201E00270401C491EFBD2704700222E
:10623000F6E710B513460A4604461946FFF7F0FF85
:10624000204610BD10B5202A04DB0146203A9140BB
:10625000002010BD914020239C1A0346E3401943BF
:10626000904010BD10B5202A04DB0846203AD040EB
:10627000002110BD0B46D340D0402024A21A9140EB
:106280000843194610BD0000064C0125064E05E0E6
:10629000E36807CC2B430C3C98471034B442F7D347
:1062A000FFF712FF0094010020940100F8B51F4889
:1062B00005691F490020C863074632E014213A46A9
:1062C0004A434168806854180121B940014226D0F0
:1062D000E068C64320686E4006403146204602F022
:1062E00039FD1248006968400CD00543E068216818
:1062F000C0436840084001460090204602F02AFD55
:10630000009806433046A168A84301402A466068C9
:106310003240104002460A4301D0226990477F1C58
:10632000FFB2044841788F42C8D3F8BD0005005041
:1063300040610040802000208307FF22DB0E9A404E
:106340008907090E994000280BDA0007000F08386A
:10635000830808489B001818C36993430B43C36123
:106360007047830804489B001B1818689043084333
:106370001860704700ED00E000E400E0BFF34F8FCD
:1063800003490248C860BFF34F8FFEE70400FA05D7
:1063900000ED00E010B50649002008604860886004
:1063A000C860034940390860486002F0FFFE10BD34
:1063B00040110140FEB50020C043124D02906869B3
:1063C000019068462E6901F09FFD074601F092FF9B
:1063D0000446002F08D002AA0199009801F0B4FDEC
:1063E000029801F0D1FF06E0029801F0CDFF0028ED
:1063F00001D1002C02D0304601F080FB00206871F2
:10640000FEBD00009C20002010B507484068002811
:1064100007D08047002803D00022114600F090FAF0
:1064200010BD01F0D3FD10BDC020002010B501F05B
:106430001BFE002805D00E490C484860C8130D49C2
:1064400088610D48018CC9B201290ED1818C0907E0
:106450000BD1018D0906090F042906D1808D000694
:10646000000F02D105490120886010BDDFFF07C081
:1064700000050040006C0040C00F00F00006004026
:106480007CB51B4CA0681B4E0025002818D0A560C9
:1064900019488069C1B2194800F06BFA002805D08C
:1064A00001216A4611700190684607E01348C168EF
:1064B0008068081A012803D168460570B1688847CA
:1064C000E069002803D0E561032002F06DF9606AFD
:1064D00000280BD0656208498039086808600221ED
:1064E0006A4611700190B168684688477CBD00001B
:1064F00000210040482000200025004030250020D9
:1065000030B47446641E2578641CAB4200D21D462C
:10651000635D5B00E31830BC184702E008C8121F37
:1065200008C1002AFAD170477047002001E001C17C
:10653000121F002AFBD1704738B50D4C6078022835
:1065400002D00C490120886069460B4800F000FA2F
:10655000002802D000F016F838BD0848802181607C
:106560006A46074B1278DA6102226270416038BDD8
:10657000482000200020004040250020002300404B
:10658000002500401CB506490120C8600549487037
:1065900003206A4610708968684688471CBD000061
:1065A0000020004048200020044900204870044991
:1065B0000122CA604A6003490860704748200020F1
:1065C0000020004000250040F7B582B000260546B7
:1065D000167000781446002805D02846039901F06B
:1065E000E3FF06002DD1A87800281BD02078039F58
:1065F000001D1F2824D8684679DF002821D1217882
:106600000322481C20707A5421781922481C2070DB
:106610007A542078C1196846008802F007FE217874
:1066200040182070A988002923D001208446AA6838
:106630000398002A07D0227853189B1C1F2B04D9DB
:106640000C2005B0F0BD0720FBE71346521C22705A
:10665000491CC15422786746511C21708754237805
:10666000AA881818A968FFF7C9FD20782979401869
:106670002070E868002815D00021415622788C4609
:10668000D01C03991F28DBD8501C022320708B5488
:1066900022780A23501C20708B5420786246431CB9
:1066A00023700A54288A002809D02846009406221C
:1066B00002211030039B02F02DFE0600C1D1288B71
:1066C000002809D028460094072203211830039B94
:1066D00002F020FE0600B4D1288C2F462037002877
:1066E00008D00094152214213846039B02F012FEB4
:1066F0000600A6D1A86A002805D02246039901F019
:106700004FFA06009DD1E86A002805D02246039979
:1067100001F018FF060094D1387D002806D02246EB
:106720002846039902F038FB06008AD1304688E7F4
:10673000F0B50127374D00249FB0012805D000286F
:1067400037D00022114610461DE004216846324E23
:106750000173B1680A8B0280491C02911721818064
:10676000382104A8FFF763FD68460474878203A8F4
:10677000069068460F90002104A800F095FE0028BE
:1067800003D00022114600F0DBF814212148FFF766
:106790004EFD032028706C602C72B0687D21408B08
:1067A000C90048431D49FFF7E3FC28826C821FB0F3
:1067B000F0BD052118A80175194800681C901548FE
:1067C0004C38817C18A8817438216846FFF72FFD6A
:1067D000022168460170877087801DA802903821C9
:1067E0000EA8FFF724FD10A807821CA815900EA97B
:1067F000684600F059FE0028C3D114210548FFF770
:1068000016FD2C706C602C72A02028821E206882DD
:10681000CDE70000DC2400200020002071020000F1
:10682000DC93010010B505484168002903D0407889
:1068300000F0FCF810BD082010BD0000642000200E
:1068400010B50246082904D000221146104600F077
:1068500077F8517910791268904710BD1CB50090F7
:10686000684601714271024A082100F083F91CBD9B
:1068700041680100F8B50C46052A01D20720F8BD91
:106880001449154D48600C70CB608A6000210123CB
:106890000BE0E200121816789778B600BF00761960
:1068A000376016781A46B24011432246641EE4B29D
:1068B000002AEED10748094B0A46401C00F000F9B7
:1068C0000028DCD10348064A0021103000F0F8F916
:1068D000F8BD00006420002000070050A17F0100E7
:1068E000917C010038B5154A0C461178884201D9CF
:1068F000072038BDC10050680D1800280CD069462B
:10690000507800F079F80028F3D16A780121002A44
:1069100004D0012A08D00FE0082038BD2B78009A57
:10692000DA40D20707D104E02B78009ADA40D20788
:1069300001D0217000E02070002038BD64200020CC
:10694000012002490004C860FFF718FD000500504F
:10695000C26883689A420AD0826883881A400368B2
:106960009A5C0A708168491C81600020704705208C
:106970007047C2688368D31A8288934208D8C36874
:1069800013400268D154C168491CC160002070479F
:106990000420704710B5002903D08A070024002A7C
:1069A00001D0072010BD0F4A0B4651601070142112
:1069B0005470414318469460FFF739FC00200A499F
:1069C000C0438860094840210160094A1068FF23DC
:1069D0001B0498430B041843106006480160002014
:1069E00010BD0000802000200063004080E200E035
:1069F00004E400E000E100E00A4B5A68002A04D0F9
:106A00005B78984203D3072070470820704714230F
:106A100058438018044A12690068024000200A6046
:106A2000704700008020002000050050F0B51F4A8C
:106A30005168002904D05378984203D30720F0BD51
:106A40000820F0BD1A4B0025DD631A4B1C699768BE
:106A5000002F02D1184EDB057360012686403E43AD
:106A60009660142250434218D560002201230D582D
:106A700093401D4215D01C4202D003252D0405E091
:106A800001256D044618F7681F43F7600B4B96000D
:106A9000F3181E6803273F04BE431E601E682E4382
:106AA0001E60521C202AE1D30020F0BD802000206F
:106AB00040610040000500500063004000070050A6
:106AC000F8B5114F84467D68002D07D0002B07D004
:106AD00078783C78A04205D30420F8BD0820F8BDA2
:106AE0000720F8BD0E461424164344432E51641962
:106AF0002361A260616061460870411C797001F0F9
:106B0000E7FE0020F8BD00008020002038B50C46CC
:106B1000A268064B12019D580978628800920246CD
:106B2000204608302369A84738BD00001C260020F5
:106B300070B50F4B05245D781E78B54215D01D78D1
:106B40001C789E88B44201DA641C00E000241C70AA
:106B50005C88DE686C43A41904609B68E800C41874
:106B6000A4880C80185800241060204670BD0000D6
:106B70008C200020F7B53B4C82B060880F468142E4
:106B80006ED80020694608703849374E4868C005FD
:106B9000C00D18D0103840B2002807DA0207120FD3
:106BA000083A920892005118C96904E08108304AF5
:106BB0008900891809688007C00EC1400806850F42
:106BC000012D01D10AE0042568462EDF02280BD0F2
:106BD000002803D000221146FFF7B2FE6178A0889A
:106BE000814203D2491C02E072B6F7E70021227805
:106BF000C9B2914207D066786178814201DA491CB6
:106C000000E000216170012D0BD062B6684600786B
:106C10002FDF022805D0002803D000221146FFF7FD
:106C20008FFE1148864219D0A068F50004994151A1
:106C3000029900290CD0002F0AD060883A464643BA
:106C4000E0683018FFF7DAFAA0682818878002E0B9
:106C5000002128188180002005B0F0BD0420FBE74A
:106C60000920F9E78C200020FFFF000000ED00E084
:106C700000E400E00EB504E068468188029A0098BE
:106C8000904702AA01A96846FFF752FF0028F3D0F7
:106C90000EBD000030B5CB0008339DB29307002431
:106CA000002B01D0072030BD044B9A605219DA60E6
:106CB0005C701C7058809980002030BD8C200020B2
:106CC00070B5114CA568002D06D0002A06D000280A
:106CD00004D00023247809E0082070BD072070BD8F
:106CE00024265E43AE5D002E04D05B1CA342F7DB7E
:106CF000042070BD242401265C432E556419617064
:106D0000A2610360002070BD9C200020FFB59807A1
:106D1000002481B01E4615460F4600280BD1002ED8
:106D200009D001F0E1FF22490A9888610F703246CC
:106D300000208E6008E0072005B0F0BD2423434307
:106D4000D4549B181C75401CB842F7DB24204743E1
:106D5000BB19032048700F461846CB6019461830FF
:106D6000002218232E465E43D3005B181C705C7013
:106D70009D7058603018521C032AF5DB0020C04378
:106D80003861BC70FC7001240A48240504600321AA
:106D90001420FFF7D1FA08480460084C0198A0605D
:106DA00003211120FFF7C8FA606878610020C3E76B
:106DB0009C20002080E200E000E100E0001501409E
:106DC000FEB504461D48174682680D46002A0CD0C1
:106DD00001788C4201D2052D01D20720FEBD21464B
:106DE00024235943535C012B01D00820FEBD881891
:106DF000407801281DD0002602F050FAC0000F494B
:106E00000190C9684018694602F072FA002812D051
:106E1000012101700A49446049680830E2C007490D
:106E20000198C96841180098487002F04DF9002097
:106E3000FEBD2E46E0E70420FEBD00009C200020A1
:106E400000150140F8B5144D0446A868002809D083
:106E500029788C4201D30720F8BD24216143405C8E
:106E6000012801D00820F8BD02F018FAC600E86831
:106E70006946301802F03CFA00280AD0022101705D
:106E80004460E86831180098487002F01DF900204D
:106E9000F8BD0420F8BD00009C200020F0B58FB0A4
:106EA0000F4605461C216846FFF7C1F96846017880
:106EB00002263143082001436846017000240194F2
:106EC00003940494059432200694415D08A88170CF
:106ED0001C4968460184601C0107090F684610318F
:106EE0000794017701200146684610314177807F81
:106EF000F9210840F721801C0840EF210840410893
:106F000049006846817714210AA8FFF790F908A87C
:106F10000A9007A80B90684606864486868678689D
:106F20002B46408B0AAA010A08A8417178682233CF
:106F3000817E08A8017109A80E9028886946A2DF01
:106F40000FB0F0BD2815000070B58EB00E46054696
:106F50001C216846FFF76BF96A4610780A2108433E
:106F60001070002401940394049405943220069434
:106F7000405D08AA907017486A461084601C00079C
:106F8000000F10300794107711205077907FF9216F
:106F90000840F721801C0840EF21084040084000CD
:106FA0009077142109A8FFF742F908A8099007A8CB
:106FB0000A9001206A469085D485108670682B4619
:106FC00017300D9028880A3309AA6946A2DF0EB04F
:106FD00070BD000025150000F0B58FB00F460546C6
:106FE0001C216846FFF723F96846017802263143E1
:106FF000082001436846017000240194039404941E
:10700000059432200694415D08A881701C496846A9
:107010000184601C0107090F68461031079401774D
:1070200001200146684610314177807FF9210840F0
:10703000F721801C0840EF210840410849006846BC
:10704000817714210AA8FFF7F2F808A80A9007A888
:107050000B90684606864486868678682B46008BA9
:107060000AAA010A08A8417178681A33017E08A8A3
:10707000017109A80E9028886946A2DF0FB0F0BD03
:107080002715000070B58EB00E4605461C216846D7
:10709000FFF7CDF86A4610780A21084310700024E3
:1070A000019403940494059432200694405D08AA48
:1070B000907017486A461084601C0007000F10305B
:1070C0000794107711205077907FF9210840F7211D
:1070D000801C0840EF2108404008400090771421B0
:1070E00009A8FFF7A4F808A8099007A80A9010209B
:1070F0006A469085D485108670682B46C01C0D901A
:107100002888123309AA6946A2DF0EB070BD0000BC
:107110002415000070B58EB00E4605461C21684649
:10712000FFF785F86A4610780A210843107000249A
:10713000019403940494059432200694405D08AAB7
:10714000907017486A461084601C0007000F1030CA
:107150000794107711205077907FF9210840F7218C
:10716000801C0840EF21084040084000907714211F
:1071700009A8FFF75CF808A8099007A80A90012061
:107180006A469085D485108670682B461C300D9019
:1071900028882A3309AA6946A2DF0EB070BD000014
:1071A0002915000070B58EB00E4605461C216846B4
:1071B000FFF73DF86A4610780A2108431070002452
:1071C000019403940494059432200694405D08AA27
:1071D000907016486A461084601C0007000F10303B
:1071E0000794107711205077907FF9210840F721FC
:1071F000801C0840EF21084040084000907714218F
:1072000009A8FFF714F808A8099007A80A90042015
:107210006A469085D4851086706809AA13300D904F
:107220002888AB1C6946A2DF0EB070BD2615000091
:1072300000B587B018221BA16846FEF7DFFF1F4884
:10724000422101705F21C90041835921018301213D
:1072500001771B494B6A6A4653754A6A130A6A46A4
:1072600013754A6A130C6A46D374496A401C090EA6
:10727000917417226946FEF7C1FF2021114801F0E1
:1072800059FB002807D1002320220C490D4801F0AA
:1072900061FC002803D000221146FFF751FB07B024
:1072A00000BD000002150112233445566778899A03
:1072B000ABBCCDDEEFF000010000BB008021002060
:1072C000800000101420002008B5684601F01EFB65
:1072D000002803D000221146FFF732FB0099054831
:1072E000002902D00121017008BD00210170FFF7C3
:1072F00045F800000020002030B587B005000CD014
:10730000FFF716FA26488068007F002803D0032084
:10731000C00300F087FF07B030BD11206946087236
:107320000C2220A102A87CDF00282BD10024FF2002
:107330009130009469460194088042004A808C8014
:10734000C88068467ADF00281CD101F063FD28461A
:10735000FFF7EEF91C216846FEF769FF052040049F
:107360000190801002900094032168460173C4814B
:1073700004741048059010480690684600F022F901
:10738000002803D000221146FFF7DAFA01F0CEFC04
:107390007D20000100F0E2FE11200003B9E70000AB
:1073A00000200020426561636F6E436F6E666967FF
:1073B00000000000A9860100257C010008B5684690
:1073C00001F0A4FA00280FD100990948002902D041
:1073D0000121417008BD002141708078FFF78CFFCA
:1073E000044873DF0028F5D000221146FFF7A8FA01
:1073F00000200020DC24002070B529480D461446EA
:10740000816820222748FEF7F9FE264842210170B4
:107410002B00FFF775F806040D10161C2D2F217890
:10742000C17461780175A1784175E178817521E0B9
:107430002178C1751EE010222146C01CFEF7DEFE39
:1074400018E06178227809028918018312E06178D6
:1074500022780902891889B24183642902D2642101
:10746000418307E00522D202914203D9428301E021
:10747000217801770A482021143001F05BFA0028B6
:1074800008D10748002320220649143001F062FB8E
:10749000002803D000221146FFF752FA70BD000009
:1074A00000200020DC20002070B50D4692B00021A5
:1074B0006A46117007241171002812D081880029B2
:1074C00005D08168002902D00978490702D42046F6
:1074D00012B070BD02A9FFF777F80028F8D102AE0C
:1074E00000E00026002D0BD0A8880028EFD101AACB
:1074F0000AA92846FFF768F80028E9D10AAA00E09F
:107500000022684603790178304672DFE0E7000028
:1075100030B50446002085B0C043A08608681E4BE5
:107520000D46A0630FCB03936B4607C32146323150
:10753000684663DF00282DD13220015D68468174E2
:1075400016490182224604A90120A0DF002821D18A
:1075500029462046FFF726FE00281BD12946204653
:10756000FFF7F2FC002815D129462046FFF78AFDD7
:1075700000280FD129462046FFF72EFD002809D10B
:1075800029462046FFF78AFC002803D129462046D9
:10759000FFF7C0FD05B030BDE093010023150000EA
:1075A00010B50A88102A06D0112A06D0502A01D117
:1075B00001F03EF910BD898801E00021C9438186B0
:1075C00010BD000070B5054601461C220F48FEF7AD
:1075D00015FE0F4C002626702968002907D00822C6
:1075E000A018FEF70BFE204608307ADF02E00848BC
:1075F00008307BDF002808D1401E60800448667098
:10760000044A0021001DFFF75BFB70BD142500201C
:107610003020002039920100F8B5224C0288002762
:107620001F4DE689102A16D029464968112A21D013
:10763000122A2DD0502A1CD1C288801DB24218D1E6
:10764000028B022A15D1C27E837E10021843C00726
:10765000C00F0CD112E081886980014610480822D1
:107660000E311030FEF7CAFD6F70002E01D100F010
:10767000DDFAF8BD0020C04368806F700846FFF750
:10768000E1FB0028F5D0A1690029F2D08847F8BDB8
:10769000811D034808221030FEF7B0FDE7E7000027
:1076A000302000201425002010B502484068FFF764
:1076B000C9FB10BD3020002030B585B00D46040058
:1076C00039D0002D37D06868002834D00020C0435E
:1076D0001A4B20800FCB049301AB07C318486946AF
:1076E000088001A8811E63DF002822D1221D69467F
:1076F0000120A0DF00281CD168468078A0712046B8
:1077000000F058FB002814D1204600F00FFB0028A1
:107710000FD12946204600F0AFFB002809D1686848
:10772000A062A868002800D0E06206490120087025
:10773000002005B030BD0E20FBE70000F0930100F3
:1077400030150000D42000203EB5002820D00029AC
:107750001ED0826A002A1BD00A88102A19D0112A4A
:1077600028D0502A17D0512A12D104468879891D71
:1077700002280DD14888228A904209D12046891CCE
:1077800000F0A4FF002803D0E16A002900D0884758
:107790003EBD898810E0CA8803899A42F8D1082240
:1077A0006B461A708A7F1A7120310291826A69468B
:1077B00090473EBD0021C94301803EBD30B585B034
:1077C000002822D00388134CA34220D0124B1B78F0
:1077D000002B1CD0104B10255B1C1D705970002411
:1077E00001259A70032269460A820094019402944A
:1077F0000394028A0A808D708C8004A902910393FD
:1078000000886946A6DF05B030BD0E20FBE70820E2
:10781000F9E70000FFFF0000D420002010B5044667
:10782000FFF7FAFE21460648FFF7BAFE0448214654
:107830003C30FFF789FF204600F0ECFE10BD000051
:107840007024002008B50F4B50220F49062001F08C
:1078500035FB002811D10090012069460870684668
:1078600060DF002809D1094801F008FB002804D195
:10787000074801F03BFB002803D000221146FFF728
:107880005FF808BDA98E0100302100201D7801009D
:107890009990010070B51A4800688047B1203CDF1C
:1078A000002803D000221146FFF74AF811DF002814
:1078B00003D000221146FFF743F8124C606913DF32
:1078C000002803D000221146FFF73AF801210E4AA2
:1078D000880510600D4A002012680C4B80330D465D
:1078E0008540154204D0C606F60E0D46B5401D6013
:1078F000401C2028F3D3606900F00AF870BD000036
:10790000542000200010001080E200E000E100E0C0
:1079100010B5FEF7DFFB10BD10B501290AD1122802
:1079200006D0082804D0002211461046FFF708F8B8
:10793000FFF7CAFC10BD000010B50E4AD368002B3B
:107940000AD0CAB2017840689847002803D00022C4
:107950001146FEF7F5FF10BD012906D00029FAD126
:10796000037842681846904710BD037801214268A9
:10797000F8E7000064200020F8B5384914230A789D
:107980000F205A4354183649227926698F88241DBE
:10799000022A1BD001252D07042A2AD0052A5BD1F3
:1079A000286981B23046FEF7E3FB0146A3882869C7
:1079B0009A1980B24843101A8208608818188619EC
:1079C00028694B1C80B25843801B34E0B80262889F
:1079D0002169121A0918A3883018181801239B026C
:1079E0009A4202D2920821DF31E0FF22013221DFE8
:1079F0002DE0A36819481901CC3008180189428983
:107A00004068B04203D160885143814218D0022BB4
:107A100016D0286981B23046FEF7AAFB01462869D4
:107A200080B24843301A820828694B1C80B2584300
:107A300063889B19C01A8308204601F073FA06E098
:107A4000286981B23046FEF793FBC01920DF002879
:107A500002D1024901228A70F8BD000050250020A1
:107A60005820002010B5084900204A78002A09D083
:107A70008978002906D1FFF77FFF002802D011285E
:107A800000D1002010BD00005025002014225043DA
:107A9000054A002180180171C18001220161C26084
:107AA000416101817047000050250020F8B5124C5B
:107AB000069E65780A2D1DD027787D19EDB20A2D16
:107AC00001D30A3DEDB214277D432D1928716A6157
:107AD00003C92961E860EB802E81A178002000298C
:107AE00004D1FFF749FF112800D100206178491C1B
:107AF0006170F8BD0420F8BD50250020F8B522487B
:107B000001694A1C3DD024225143826889184E687D
:107B10001E494C6847690079E11B0D022D0AED1CD6
:107B2000002814D101201A4A00045060184A403A33
:107B30005060184940000860174908601749012043
:107B400008602F20FEF7E8FA0F4901200871B542BE
:107B500000D23546E81900020C49000A403108609D
:107B60000A494968001B091B0902090A0002000AA8
:107B7000C91C814204D901200649400480390860AB
:107B8000F8BD01F0B1F8F8BD9C20002000150140BF
:107B90004013014080E200E000E100E000100140FD
:107BA000F8B50D4611780646881D14461F2801D9E0
:107BB0000C20F8BD33880720062BFAD31927FF01C4
:107BC000BB4202D9164A9342F3D17288062AF0D3F7
:107BD000BA4202D9124FBA42EBD1114FBB4203D085
:107BE000BA4201D09342E4D8481C052220706A545E
:107BF00020781222411C21702A54207841193088A3
:107C000001F014FB21784018C0B22070411970882F
:107C100001F00CFB2178401820700020F8BD000016
:107C2000FFFF000000221146FEF78AFEF8B5164855
:107C300000F00CFA144D0026103D144C002807D01B
:107C4000616900291BD001206A461070684615E062
:107C50002878002805D06169002910D06846067090
:107C60000CE0687800280CD0A16800226868FFF753
:107C7000A7F8002803D0A169002900D088472E70FA
:107C8000F8BD6168F1E700004020002014250020C5
:107C9000F8B5184D69466878FEF7AEFE00281DD18C
:107CA0002F4600241437012615E06968E0004018CB
:107CB000037831463A6899400A4210D04268002A57
:107CC0000DD04178012901D1002100E00121FFF709
:107CD00033FE641CE4B228788442E6D3F8BD7A68A7
:107CE0000A42F6D041680029F3D041780129EDD04D
:107CF000EAE700006420002010B50978002902D8C6
:107D0000FFF7C8FD10BD03220121FFF757FD002832
:107D1000F8D000221146FEF713FE10BD7047000098
:107D200001490860704700005420002030B58FB032
:107D300005461C216846FEF77AFA6946087808214C
:107D400008431022104369460870002401940394EC
:107D5000049405940694A87908A988701448694683
:107D60000884601C00070794000F0C7710304877D8
:107D7000887FF9210840F721801C08401043012129
:107D8000084369468877142109A8FEF750FA08A825
:107D9000099007A80A9069468C851720CC8508862B
:107DA0000D942B46A888103309AAA2DF0FB030BD6E
:107DB0003115000030B58FB005461C216846FEF72E
:107DC00036FA694608780421084369460870002499
:107DD00001940394049405940694A87908A98870E2
:107DE000144869460884601C00070794000F0C774C
:107DF000103048778A7FF9200240F720921C024019
:107E0000EF200240012002438A77142109A8FEF7DF
:107E10000EFA08A8099007A80A9069468C851420D4
:107E2000CC8508860D942B46A888083309AAA2DFC2
:107E30000FB030BD3215000010B50D480D498088D7
:107E400011242403884202D0132176DF00E074DF7E
:107E5000002808D1204600F003FA002803D1FFF7DC
:107E600023FC002803D000221146FEF769FD10BD57
:107E700000200020FFFF0000F0B58FB00F46054640
:107E80001C216846FEF7D3F9684601780226314383
:107E90000170002401940394049405940694A97934
:107EA00008A88170174968460184601C0107090F02
:107EB00068461031079401770020014668464177F3
:107EC000817FF9200140F720891C0140EF2001400B
:107ED0000120014368468177142109A8FEF7A7F91C
:107EE00008A8099007A80A9068468685C485068672
:107EF0000D972B46A888203309AA6946A2DF0FB048
:107F0000F0BD00003415000010B50E4900238A783A
:107F1000CC78A24212D0521CD2B28A70022A00D16E
:107F20008B708A78074B92001C339A58026048691C
:107F300010180002000A4861012010BD03600020F3
:107F400010BD00009C200020F7B5144C0025A76848
:107F500023691EE024215943C9194E68864202D97B
:107F6000301A486017E0801B751900264E600E75A8
:107F70000E699C460B6AB646002E0AD0019E761901
:107F80003602360A8E607646CE6016680E6261460C
:107F90001160591CDED12361FEBD00009C20002031
:107FA00070B5094D04460E462869FEF74BFF0028C0
:107FB00009D1284614300660446034432246A9683B
:107FC0002869FEF7FDFE70BD64200020F8B51E4C48
:107FD0002078002837D02069002807D00026E068E4
:107FE000002805D00025002E04D013E00126F6E776
:107FF0000125F8E7684651DF052806D0002806D09D
:1080000000221146FEF79CFC04E0012602E02169F3
:1080100000988847002D12D1608869460880A068C2
:1080200061DF052806D0002806D000221146FEF7A1
:1080300087FC04E0012502E0E168A0688847002E83
:10804000D8D0002DCFD0F8BDC020002041880548F1
:108050000288914204D34088814201D801207047B0
:1080600000207047382000201048018CC9B2012937
:1080700017D1818C090714D1018D09060A0F03D18C
:10808000828D1206120F0ED0090F012903D1828DA5
:108090001206120F07D0032903D1808D0006000FAE
:1080A00001D000207047012070470000C00F00F091
:1080B000800701D00020704701207047F8B5234D9C
:1080C0000646287B0024002801D00820F8BD002E99
:1080D0001DD0307800281CD07178884219D9B0782A
:1080E000002816D0F068002813D024211748FEF786
:1080F0009EF81648142231461030FEF77FF8012111
:10810000124AA972032320321278E86915E00E2082
:10811000F8BD0720F8BDC6070DD00D4EA700BE194B
:108120003360002A0E4603D00A4FA640FE6002E0EC
:10813000084FA640BE604008641C0028EBD129739C
:10814000054A0021281DFEF7BBFDF8BDF0240020E4
:1081500000070050000500507581010004490A7BAA
:10816000002A02D0486100207047082070470000B4
:10817000F0240020F8B5294C207B00284DD0204663
:1081800020210F5C667A0B21254A012541560368A0
:10819000002E2FD0002F01D0D36000E09360002389
:1081A00063721E48A67A827C407C002E07D0891814
:1081B00049B2E172227C914207DBA37205E0891A81
:1081C00049B2E172814200DCA5720B216156814205
:1081D0000DDC6069FF23410CC003F5330022C01899
:1081E00051415A000023FDF7D9FF01460BE06420FE
:1081F000411A05E0002F01D0936000E0D360657262
:1082000006204143491D00226068FEF7D9FD002881
:1082100003D000221146FEF793FBF8BDF0240020A6
:108220000005005010B50C4C217B002906D02168B8
:1082300001432160207A002802D00AE0082010BD06
:10824000002206496068FEF7BBFD0028F7D1012037
:108250002072002010BD0000F02400208F020000DA
:1082600010B50B4C217B002908D021688143216087
:10827000207A00280AD0002902D007E0082010BD8B
:108280006068FEF7DFFD0028F9D12072002010BDE4
:10829000F024002000B5154985B00320086013497B
:1082A000103908601149091F0860012210481104A3
:1082B000816009118160C9008160002069460874ED
:1082C00014230B7048708A701921090303917D21D2
:1082D0004901029001916846FFF7F0FE002803D0A3
:1082E00000221146FEF72CFB05B000BD40070050F0
:1082F00000050050F8B5234801690091457833E046
:108300002048E900C0680E1834782AE0182060433D
:108310007168641C0818B178E4B2A14200D100244D
:108320000178022902D003291BD113E0154A4068C5
:108330002421926841438F18397D002911D000F023
:10834000FDFE002038750CE024277843C018027524
:10835000006A03E00B4900228B680869471CF3D1CF
:1083600008617078A042D1D128466D1EEDB2002878
:10837000C6D1044801690098814201D00120F8BDAE
:108380000020F8BD9C200020F8B50446384800279E
:108390000169009146785CE03548F100C2688D18AB
:1083A00051E0601C07D0324A242092686043214685
:1083B0008018046A24E02878182141436A68401C28
:1083C000C0B252182870A978884200D12F70284B6B
:1083D000516824209B684843C0181378012B34D17E
:1083E000037D002B31D193688360D368C360136928
:1083F00003615269C2611E4A5279002A00D0876027
:108400001B4B82685B6996469C46D31A1A02194B2D
:10841000120A9A4202D2C368D21808E07246634632
:108420009A1A1202C368120A934202D99A1A426037
:1084300000E0476087600122C7600275921E0262F9
:10844000084600F049FE601CABD128786978884264
:10845000A7D13046761EF6B200289DD104480169A6
:108460000098814201D00120F8BD0020F8BD000035
:108470009C200020FFFF7F001CB52C4A0A21082009
:10848000FEF708FC00284CD1284B0422B03303210E
:108490000090FEF73BFC002843D125490220FEF75F
:1084A00079FA00283DD1234B234A02212348FEF7C5
:1084B000E1F9002835D1FEF7B5F9002831D1FFF7F1
:1084C000E9FEFFF7BFF900F073FA002829D16946E9
:1084D000FEF708FA002824D169460978174C0120D4
:1084E00041401C3CA17016490091202269468A80B7
:1084F000C88021461431684600F0AEFA002810D139
:10850000204614304068A0600078422801D0FEF771
:108510008FFEA078FEF752FFFEF7ACFB40DF00288D
:10852000FAD000221146FEF70BFA0000A02100202D
:10853000482400205D680100660600001C20002021
:10854000498A010070B5054600790E46801C144624
:10855000C0B21178821C8A181F2A01D90C2070BD64
:108560000A46491C2170401CB0542078FF22411C4F
:108570002170325420788119288800F057FE217824
:108580004018C0B22070AA88002A09D0A968002922
:1085900008D08019FDF732FE207829794018207024
:1085A000002070BD072070BDF8B514780746A01CE8
:1085B00015460E461F2803D87878801C1F2801D93D
:1085C0000C20F8BD1D20001B80B26946864608803D
:1085D0003019801C7DDF0028F3D13878022805D1BE
:1085E00068460088704501D8092107E0787808219D
:1085F000002801D0704501D968460088421C3255D8
:10860000641CE2B2B1542978801C0818287000203C
:10861000F8BD000010B5224902888B88142A24D0A6
:108620000BDC102A14D0112A15D0132A12D10A46B5
:108630000C32002118467FDF25E0172A0FD0192AB7
:1086400027D0522A06D1002211461846A9DF1AE087
:108650008088888010BD0020C04388801CE0811D78
:1086600032221048FDF7CAFD10BD0E49C089CA88E4
:10867000891D824203D10022184681DF03E00022D7
:108680001146184681DF0028EED000221146FEF781
:1086900057F980790028E7D1FEF716FE10BD0000DB
:1086A00000200020FC20002010B50078002809D10F
:1086B00005483B21808876DF002803D00022114640
:1086C000FEF73EF910BD000000200020F0B589B093
:1086D00004460227684607700D468783A08A08ABC8
:1086E00007AA0021A5DF0026002804D0E16A00299E
:1086F0001AD0884718E06846008CC007C00F13D016
:108700006846868020886946A8DF002812D1A97EA5
:1087100028461B3001220B00FDF7F2FE09430E1C18
:108720002225272A412C4300FF20FE3069468880FD
:108730002088A8DF09B0F0BD6B461E740CE006224D
:108740001DE069460A750690A26A04A92046904772
:108750000020EFE76B461A742B8B022BF1D2EEE769
:1087600068460774F0E7032000E00420694612E041
:108770000520FBE7298B032905D203220821204687
:10878000FFF71CF8D6E741780278080210436946E3
:10879000888202D006200874D6E70720FBE709206C
:1087A000E4E70322EBE7000010B51D4A1D49030072
:1087B000FDF7A6FE05040B3120271200487801289A
:1087C0001FD0022808D1032005E04878002804D0F3
:1087D000032801D10220487010BD134B04201860FB
:1087E000124B01201860D36892689342F3D0FDF7D2
:1087F000A3FE10BD4878012806D0022804D0032823
:10880000F7D1FDF7D1FE10BDD06891688842EED156
:10881000FDF7B8FE10BD48780128E8D010BD000073
:108820004025002048200020002500400020004076
:1088300070B5836B8C1D0546002B48D020886A8854
:1088400026461A36904206D1208B042803D13246A0
:1088500000212846984720886989884207D1208BC3
:10886000012804D1AB6B3246012128469847208865
:10887000698A884207D1208B102804D1AB6B32461D
:108880000221284698472088698B884207D1208B8F
:10889000022804D1AB6B3246032128469847208832
:1088A000698C884207D1208B022804D1AB6B3246F9
:1088B0000421284698472088698D884207D1208B5B
:1088C000012804D1AB6B324605212846984770BD7C
:1088D000F0B50C4A002153681422504301240A4D7C
:1088E00003273F041E5822468A40164206D08A00BB
:1088F00052191668BE43166016681660491C202976
:10890000F0D3F0BD8020002000070050074909780F
:10891000002906D0002806D00549497801600020CA
:108920007047082070470E20704700005820002034
:1089300050250020F8B505461B480F460078002852
:1089400005D0002D05D02868002820D103E008209C
:10895000F8BD0E20F8BD154C00262068002816D062
:1089600060892189484361684118686881420ED94D
:10897000FFF79EFB00280CD02968686809010919D7
:108980004A680989801AFDF7F3FB002903D0072004
:10899000F8BD1020F8BD3B46002229460420009671
:1089A000FFF784F8F8BD0000582000201C260020A6
:1089B000F8B50026214C2248A680667006704670E5
:1089C000867035462846FFF761F86D1C0A2DF9D3ED
:1089D0001C4F668078693D04401C05D0286981B22F
:1089E0007869FDF7C5FB00E068692969801E89B2D6
:1089F0004843A0601248A680CC300660068186817C
:108A00004681082060707869401C05D0286981B2D1
:108A10007869FDF7ADFB00E068692969401E89B2FD
:108A20004843296989B2FDF7A3FB20DF002803D161
:108A3000034A012191702170F8BD000058200020E8
:108A4000502500200010001010B5100003D00022A7
:108A50001146FDF775FF10BDF8B504463A480F46BC
:108A6000007800281DD0002C1DD0002F1BD02068BE
:108A7000002818D001252D07A688286980B28642D3
:108A800030D8102E2ED3E088009000282AD02F480E
:108A90004169491C09D02969406989B2FDF768FB21
:108AA00004E00820F8BD0E20F8BD68692969401E61
:108AB00089B24843244B00999D6871434B199842F1
:108AC00010D301200007006980B2814208DD012037
:108AD00000070069314680B2FDF74AFB002901D149
:108AE000B00701D00720F8BD17484288012A1AD0E4
:108AF000174824C711010E18756023684350A088D9
:108B00003081E0887081A088E188002348430121FA
:108B100009075B1C0C699BB2A4B2844205D20C69A4
:108B2000A4B2001B02E00420F8BD00200C69A4B22E
:108B300065190C69A4B28442EBD90348521C8560C4
:108B4000B38142800020F8BD5820002000100010A2
:108B50001C260020F8B5044620481E46007815461D
:108B60000F46002807D0002F07D0002C05D0206822
:108B7000002817D103E00820F8BD0E20F8BD1848E2
:108B8000016800290ED04289018940684A431018C3
:108B90006268904206D9002D04D0A94202D3A819D8
:108BA000884201D90720F8BD3846FFF781FA00282E
:108BB00011D03046FFF77CFA00280CD06068FFF730
:108BC00077FA002807D02B463A4621460220009625
:108BD000FEF76CFFF8BD1020F8BD00005820002003
:108BE0001C260020F8B5064600203D4D8646A87894
:108BF000012812D100203B4AA8705378082B0DD0D1
:108C00002F463C7814216143C919022E14D0032E3B
:108C100003D10D20091DFDF779FFF8BD022E09D003
:108C20001070FEF71FFF0028F7D029781422514357
:108C30004919EFE75070F4E72A4A95886D1CAEB2E7
:108C400096800D79091D022D05D14F88B202BA42D6
:108C500001D3012200E000229446052D01D1072B0B
:108C600003D00022042D02D003E00122FAE7072BF3
:108C700003D00027042D02D007E00127FAE7498836
:108C8000B5028D4201D3002B27D000213A430A437D
:108C900061460A4317D0134A1149507090804878B2
:108CA000401E4870601CC0B208700A2801D30A3800
:108CB00008701420604341187046091DFDF726FF17
:108CC0002046FEF7E3FEFEF7CDFE0028A5D00449BE
:108CD00014230A785A4351189CE70121D6E7000073
:108CE000502500205820002070B501240B49600455
:108CF00008600B4940108860094940398860094D77
:108D00006C602F20FDF708FAAC60074D00242F207F
:108D10006C61FDF701FA2C7170BD000080E100E08C
:108D200040130140001001409C20002008491E20F3
:108D300008808878E122400840001040DF220C3093
:108D4000104088700720C87010200871704700001C
:108D50000C200020F0B500220123032636041F4614
:108D60009740394212D0C5683D4203D101246404C2
:108D70003D4301E03446BD43C560064D97007D1973
:108D80002F68B7432F602F6827432F60521C202A7B
:108D9000E5D3F0BD00070050F7B582B00298144645
:108DA000006B0F46002833D0029800252030009039
:108DB00028E00298016B0C2068430E182178307966
:108DC0004A1C2270C01C785420781622411C217045
:108DD0003A542078C119308800F028FA21784018D8
:108DE000C0B22070B288002A09D0B16800290FD023
:108DF000C019FDF703FA20783179401820706D1CF6
:108E00000098EDB2007DA842D3D8002005B0F0BD97
:108E10000720FBE700B585B00020009002900F48C6
:108E200001900120694608800D48FEF745FC0028A6
:108E30000ED10C48FEF774FF0B4803900B4803A9B2
:108E40008068049006483C38FEF762FB002803D097
:108E500000221146FDF774FD05B000BDF97C01004C
:108E6000AC240020397E0100F973010000200020AD
:108E700010B508461146C046C04610BD002803D0B4
:108E80000249C860002070470E207047C0200020B3
:108E900010B5002904D0002211461046FDF750FD00
:108EA000FFF794F810BD000010B50021024A0846F3
:108EB000FDF760FE10BD0000918E010070B5002925
:108EC00001D08C0701D0072070BD064C0125A160A0
:108ED00062800549636010DF0028F5D125701620F7
:108EE00026DF70BDC0200020718E0100002803D055
:108EF00002490861002070470E207047C020002002
:108F000010B507480178002902D0FEF7DDF910BD41
:108F100041780029FBD08078FEF750FA10BD0000A0
:108F200000200020FFB583B00F46594D069A0599E1
:108F300006466B78114303200191002B03D10029D1
:108F40000FD001216970059A6978012492002407E5
:108F500000920B00FDF7D4FA0732072134547483D2
:108F600032000221EEE74B484169491C05D02169D6
:108F7000406989B2FDF7FCF800E060692169401E94
:108F800089B24843216909048A0C216989B279436D
:108F900021DF002812D102210FE0384620DF00280F
:108FA0000CD10599002901D0032106E0069900297A
:108FB0001FD13178042968D020E0697007B0F0BD76
:108FC00034484169491C05D02169406989B2FDF7DF
:108FD000CFF800E060692169401E89B241432069F1
:108FE000059A80B2784321DF0028E7D1069900294D
:108FF00001D00421E1E7317804292ED00521DCE7F6
:1090000024484169491C05D02169406989B2FDF7AE
:10901000AFF800E060692169401E89B24843718859
:10902000421800981018226992B27A435218009997
:10903000531801461846069A21DF0028DBD0BDE709
:109040002069718880B2784380188A08316921DFED
:109050000028B3D10199002917D00621ADE70D48AA
:109060004169491C05D02169406989B2FDF780F842
:1090700000E060692169401E89B24843216989B2D4
:10908000FDF776F820DF002898D1072195E700004A
:10909000582000200010001008B5FFF7A3FD684617
:1090A000FFF734FC009908430AD10021054A08461D
:1090B000FDF760FD002803D000221146FDF740FCBB
:1090C00008BD0000018F0100012002490005086071
:1090D0007047000000E200E0F0B5174F2421BC68A3
:1090E00041430D1939694A1C09D024224A431619F3
:1090F0006B687268934204D8D21A72602962386130
:10910000F0BD0A4602E00A46396A9B1B4E1C0BD092
:1091100024264E4337197E689E42F4D324264E43BC
:1091200036197768FF1A77606B60296224214A43F9
:1091300011190862F0BD00009C20002070B5194C88
:109140002269A5681346114606E0814207D00A4607
:10915000242671434919096A4E1CF6D170BD002EB0
:10916000FCD08A420CD1242043435819006A206164
:10917000401C05D10C4B0120986000236361607195
:10918000242041434819242341685A43006A521954
:109190001062421CE2D02422504340194268511808
:1091A000416070BD9C20002000100140F8B51D4CAE
:1091B0002569681C35D01C48002640686169401A42
:1091C00007023F0A19E024204543A0682A18506886
:1091D000B84214D8A3693F1A8619156A002B09D022
:1091E000D16990699847002807D000221146FDF701
:1091F000A7FB02E09169D0698847681CE3D1A17898
:10920000E078814206D1401CC0B2E070022801D152
:109210000020E07003490006800D1C310E50FFF75E
:1092200053FFF8BD9C200020001501400870000A83
:10923000487002207047000038B51549154A488823
:1092400090420FD04A78144C521CD2B24A70237B01
:10925000934208D3083175DF002803D0A1690029A3
:1092600000D0884738BD00254D70217C002907D0EB
:109270003B2176DF002803D0A169002900D0884770
:1092800061690029EED068460570884738BD000046
:1092900030200020FFFF00001425002012494868FC
:1092A000C005C00D19D0103840B2002807DA0207F7
:1092B000120F083A920892005118C96904E0810817
:1092C0000A4A8900891809688007C00EC14008064B
:1092D000800F012803D0032803D00220704700200C
:1092E000704701207047000000ED00E000E400E05E
:1092F00042788378521C934200D100220378934233
:1093000001D1002070470A6041684078182250431C
:1093100008187047F8B51546069C1E4607460222F7
:10932000009400F00AF8002806D13346102229469E
:109330003846009400F001F8F8BDFFB583B0074649
:1093400000200C9C8646267805463AE07868A900FD
:1093500041180A88684682804988C180002269468F
:1093600001A865DF002810D1684601780598814280
:1093700026D17046002801D0002200E00222207889
:10938000891841181F2902D90C2007B0F0BD714679
:10939000002908D1401CC0B2411C069B049A2170D0
:1093A0001A5401208646217806980A18694601A8B1
:1093B00065DF0028E9D169462078097840182070D7
:1093C0006D1C3888A842C1DC7046002804D0207883
:1093D0000699801B401E88550020D6E72315000003
:1093E000ADE8F3D4B88494A0AAF5E20F00005A9532
:1093F00023D1BCEA5F782315DEEF121200000000D3
:109400002094010000200020DC0000001A6501000B
:10941000FC940100DC200020540D00002A650100AE
:1094200000000000FFFF000000000000000000003E
:109430000000000000000000000000001200030017
:109440001979010008000300197901000024F400D3
:10945000000000000000000000000000000000000C
:1094600000000000000000000100000000000000FB
:10947000000000001D7D0100000000000000000051
:1094800000000000000000000000000000000000DC
:1094900000000000000000000000000000000000CC
:1094A00000000000000000000000000000000000BC
:1094B00000000000000000000000000000000000AC
:1094C000000000000000000000000000000000009C
:1094D000000000000000000000000000000000008C
:1094E000000000000000000000000000000000007C
:0C94F00000000000000000000000000070
:04000005000160C1D5
:00000001FF
